:020000040800F2
:10000000C808002041030008490300084B0300080A
:100010004D0300084F0300085103000800000000D2
:100020000000000000000000000000005303000872
:10003000550300080000000057030008C112000823
:100040005B0300085B0300085B0300085B03000818
:100050005B0300085B0300085B0300085B03000808
:100060005B0300085B0300085B0300085B030008F8
:100070005B0300085B0300085B0300085B030008E8
:100080005B0300085B0300085B0300085B030008D8
:100090005B0300085B0300085B0300085B030008C8
:1000A0005B0300085B0300085B0300085B030008B8
:1000B0005B0300085B0300085B0300085B030008A8
:1000C0005B0300085B0300085B0300085B03000898
:1000D0005B0300085B0300085B0300085B03000888
:1000E0005B0300085B030008000000005B030008DE
:1000F0005B0300085B0300085B0300085B03000868
:100100005B0300085B0300085B0300085B03000857
:100110005B0300085B0300085B0300085B03000847
:100120005B0300085B0300085B0300085B03000837
:100130005B0300085B0300085B0300085B03000827
:1001400000000000000000000000000000000000AF
:100150005B0300085B0300085B0300085B03000807
:100160005B0300085B0300085B0300085B030008F7
:100170005B0300085B0300085B030008000000004D
:100180005B0300085B0300085B0300085B030008D7
:100190005B0300085B0300085B0300085B030008C7
:1001A0005B0300085B0300085B0300085B030008B7
:1001B0005B0300085B0300085B0300085B030008A7
:1001C0005B0300085B0300085B0300085B03000897
:1001D0005B0300085B0300085B0300085B03000887
:1001E0005B0300085B0300085B0300085B03000877
:1001F0005B0300085B0300085B0300085B03000867
:100200005B0300085B0300085B0300085B03000856
:100210005B0300085B0300085B0300085B03000846
:100220005B0300085B0300085B030008000000009C
:100230005B0300085B030008000000005B0300088C
:100240005B0300085B0300085B0300085B03000816
:100250005B0300085B0300085B0300085B03000806
:100260005B0300085B0300085B0300085B030008F6
:100270005B0300085B0300085B030008000000004C
:100280005B030008000000005B03000800000000A2
:10029000000000005B03000800F002F800F041F8E5
:1002A0000AA090E8000C82448344AAF10107DA45D1
:1002B00001D100F036F8AFF2090EBAE80F0013F0E2
:1002C000010F18BFFB1A43F001031847002000007C
:1002D00020200000103A24BF78C878C1FAD852070D
:1002E00024BF30C830C144BF04680C6070470000B0
:1002F0000023002400250026103A28BF78C1FBD82F
:10030000520728BF30C148BF0B607047642900F016
:100310007780002070471FB501F0CCFD1FBD10B5E0
:1003200010BD00F03BF91146FFF7F5FF01F088F82A
:1003300000F072F903B4FFF7F2FF03BC00F0D8F944
:100340000948804709480047FEE7FEE7FEE7FEE769
:10035000FEE7FEE7FEE7FEE7FEE7FEE704480549A5
:10036000054A064B704700009913000899020008DF
:10037000C8000020C8080020C8040020C8040020CD
:100380000FB4044910B503AA029800F0D1F810BCCC
:100390005DF814FB700000202DE9F0410E46044684
:1003A000002020622046E168884730B3252805D028
:1003B000D4E901219047206A401CF2E7E168204619
:1003C00000278847050018D0A5F14100192802D858
:1003D00020354FF400673246294620462760FFF754
:1003E00095FF40B1012804D0F61D26F00706083617
:1003F000D8E7361DD6E72846DAE7206ABDE8F0815F
:100400002DE9F0410646002410687529314616A5ED
:1004100010D0AFF30080002802DA404213A507E0B5
:1004200031688A0701D512A502E0490704D511A554
:10043000012401E0AFF3008000210A2206F1240725
:1004400009E0B0FBF2FCB0FBF2F302FB1C00303021
:1004500078541846491C0028F3D123462A463046D2
:10046000BDE8F04100F00BB8000000002D000000D6
:100470002B000000200000007047704770472DE9F6
:10048000F0470D4699469246044600F1240801685B
:10049000880604D5E06921F01001216000E0012008
:1004A000A84201DD471B00E00027A1697A1902EB91
:1004B0000900081AA0612078C00602D42046AFF3D4
:1004C0000080002608E0D4E901211AF806009047D0
:1004D000206A401C761C20624E45F4DB2078C00662
:1004E0000AD52046AFF3008006E0D4E90121302090
:1004F0009047206A401C2062381EA7F10107F4DCF7
:1005000007E0D4E9012118F805009047206A401C53
:100510002062281EA5F10105F3DC2046AFF3008020
:100520002078000602D50220BDE8F0870120FBE715
:10053000074B70B50D467B4400F015F8044628467D
:1005400000F024F810B14FF0FF3070BD204670BDB0
:10055000BF0E0000004870471400002001694A1CCB
:1005600002610878704700B58FB0CDE901310021F4
:10057000059105497944CDE9031011466846FFF716
:100580000BFF0FB000BD0000E5FFFFFF007B00F098
:100590008000704700487047100000207546FFF744
:1005A000F9FFAE4605006946534620F00700854630
:1005B00018B020B5FFF7D2FEBDE820404FF000068E
:1005C0004FF000074FF000084FF0000BAC46ACE8CE
:1005D000C009ACE8C009ACE8C009ACE8C00921F02A
:1005E00007018D46704700001FB584B000200A9CAB
:1005F00006AB04AA02A90094AFF3008018B1DDE9AC
:10060000020108B010BD0348204000F00EF80020A1
:100610000146F6E70000207C10B50446AFF30080E9
:100620002046BDE81040FFF785BE10B500F00AF87F
:10063000BDE81040AFF30080002801D000F058B8AA
:100640007047000010B5022803D0410103D50DA169
:1006500012E0002010BD010101D50FA10CE0C10086
:1006600001D511A108E0810001D512A104E04000EC
:1006700001D513A100E0002115A000F03FF80120F2
:1006800010BD0000496E76616C6964204F70657220
:100690006174696F6E000000446976696465204288
:1006A00079205A65726F00004F766572666C6F77BD
:1006B00000000000556E646572666C6F7700000084
:1006C000496E657861637420526573756C740000BF
:1006D0005349474650453A2041726974686D6574C4
:1006E000696320657863657074696F6E3A200000F5
:1006F00001491820ABBEFEE72600020070B5054692
:100700000C460A2000E06D1C00F011F835B1287885
:100710000028F8D102E0641C00F009F814B1207838
:100720000028F8D1BDE870400A20AFF3008008B57A
:1007300069468DF800000320ABBE08BD704700007D
:10074000B0B5044600F0E4F840F200010546C2F2FC
:100750000001621C097818BF0C4400BF00F0D8F8F3
:10076000401BA042FAD3B0BD2DE9F04F81B000F19B
:1007700026424FF00A0E02F1FF7342F20042C5F624
:1007800002024FEAB324904240F2040B08BF4FF03C
:10079000090EC5F6000B092C38BF4FEAB32E002313
:1007A0004FF0010C0027002507E000BF013504379A
:1007B000102D03F1020300F09D800CFA05F80E687D
:1007C00016EA080FF2D0D1F8049049F01006122E64
:1007D00014D16FF0030207F01C0402EA55060F2241
:1007E000064402FA04FAD6F820900A6929EA0A09AE
:1007F000A24042EA09023262D1F80490032204685E
:100800009A40B9F1120F6FEA020A24EA020209F0D3
:10081000030404FA03F442EA0402026013D80CFA57
:1008200009F212F0061F0ED08268CC6802EA0A02B2
:100830009C402243826042684FEA191422EA08026F
:10084000AC4022434260C2688C689C4002EA0A02C3
:100850005FEAC90642EA0402C260A7D544F2F44442
:1008600040F2084AC5F60204C5F6000A0F262268BF
:1008700042F002022260226802F00202009225F099
:100880000302009C07F00C0452F80A90A64029EAE3
:1008900006060EFA04F4344342F80A40DBF87C9072
:1008A0004C6849EA0806E20358BF29EA0806A20391
:1008B0004FF0B04ACBF87C60DBF8809049EA08063C
:1008C00058BF29EA0806E202CBF88060DAF8009007
:1008D00049EA080658BF29EA0806A402CAF80060D7
:1008E000DBF8002042EA080658BF22EA0806CBF8E7
:1008F00000605BE701B0BDE8F08F00000000000081
:1009000012B10183704700BF4183704700000000AF
:1009100040F2C400C2F2000000687047000000000E
:1009200040F2000040F2C401C2F20000C2F2000135
:1009300000780A681044086070470000000000005A
:1009400080B5032000F070F8002000F009F80028BE
:100950001CBF012080BD00F027F8002080BD0000F2
:1009600070B540F2000640F20801C2F20006C2F281
:1009700000014FF47A73044632780968B3FBF2F24F
:10098000B1FBF2F1084600F083FC0F2C4FF001059B
:1009900008D838B94FF0FF3000222146002500F07A
:1009A00013F87460284670BD81B044F2F440C5F677
:1009B0000200016841F002010160006800F00200DD
:1009C0000090009801B0704770B54EF60C5C4FF087
:1009D000FF36CEF2000C00F16045DCF80030C3F3C6
:1009E000022E8EF00703042B28BF0423BEF103045C
:1009F00006FA03F321EA030100F00F0338BF0024D5
:100A0000043BB0F1FF3F634406FA04F003F10C032A
:100A100001FA04F1C8BF05F5644322EA0000084367
:100A20000001187070BD00004EF60C514FF6FF0328
:100A3000CEF200010A681A4060F30A2242F0806098
:100A400040F0FD700860704780B500F045F944F251
:100A500018414FF48072C5F60201096892FAA2F2B9
:100A6000B2FA82F201F47061D14042F27A22C0F609
:100A70000002515CC84040F20801C2F20001086067
:100A800080BD0000000000002DE9F04742F200099F
:100A90000D46C5F200290446D9F8002002F00702ED
:100AA0008A420DD2D9F8000020F007002843C9F887
:100AB0000000D9F8000000F00700A84240F0A08034
:100AC000206844F218488107C5F6020807D5D8F80F
:100AD0000010E26821F00F011143C8F80010C007B0
:100AE00042D1D9F8000000F00700A8420CD9D9F88B
:100AF000000020F007002843C9F80000D9F80000E2
:100B000000F00700A8427BD12068410744D40107C8
:100B10004CD4C10654D4800607D5D8F80800E16942
:100B200020F070000843C8F8080000F0D5F8D8F8A5
:100B300000104FF4807201F4706192FAA2F2B2FADE
:100B400082F20027D14042F27A22C0F60002515CC4
:100B500040F20802C2F20002C84010600020FFF715
:100B6000FFFE3846BDE8F087D8F8000020F4706139
:100B7000D4E90102012841EA0201C8F800102BD093
:100B8000032831D0022837D158F8181C89033BD4E8
:100B90000120BDE8F08700BFD8F80010226921F0DD
:100BA00070011143C8F800100107B2D5D8F804103D
:100BB000626921F070011143C8F80410C106AAD57A
:100BC000D8F80410A26921F4E0611143C8F80410B8
:100BD0008006A2D4A9E700BF58F8181CC90513D491
:100BE0000120BDE8F08700BF58F8181C89010BD41C
:100BF0000120BDE8F08700BF58F8181C490703D44E
:100C00000120BDE8F08700BF58F8081C21F007015B
:100C1000084348F8080CFFF77BFE61680646032985
:100C200041F2883A4FF0030724D0022930D001293D
:100C30000ED100BF58F8080C00F0380008283FF427
:100C400050AFFFF765FE801B5045F3D989E700BF21
:100C500058F8080C10F0380F3FF443AFFFF758FE78
:100C6000801B5045F4D97CE7FFF752FE801B5045AE
:100C70003FF677AF58F8080C00F038001828F3D189
:100C80002FE700BFFFF744FE801B50453FF669AFDA
:100C900058F8080C00F038001028F3D121E70000C4
:100CA00080B5FFF7D1FE44F218410122C5F60201DA
:100CB000096892FAA2F2B2FA82F201F00F01D14071
:100CC00042F27A22C0F60002515CC84040F20C01A8
:100CD000C2F20001086080BD2DE9F04144F20047F6
:100CE00040F60014C5F60207C0F23D043869C0F3AF
:100CF000C200032812D0022830D0002862D1386800
:100D000049F200048006C0F2D0345BD53868C0F3E5
:100D1000C100C4402046BDE8F08100BFB86AB96A8E
:100D2000FA6A7B6B02F0010200F00305C3F3CC0307
:100D3000C1F3051603FB02F000F074FF022D80469C
:100D400014D0BDB9386849F200048006C0F2D0342E
:100D500010D53868C0F3C100C4400BE041F2002454
:100D6000C0F27A042046BDE8F08100BF41F20024C1
:100D7000C0F27A04B4FBF6F000F054FF0446386B7E
:100D80006FF35F2000F04EFF06464FF0645140467F
:100D900000F05CFF314600F0A3FD4FF07E5100F003
:100DA0009FFD214600F052FF396B0446C1F34621F6
:100DB000481C00F037FF0146204600F031FE00F0ED
:100DC0000DFF04462046BDE8F08100000000000051
:100DD000F0B581B00446007844F20046C007C5F67D
:100DE000020615D0306900F03800102809D03069AB
:100DF00000F0380018284BD1B06A00F00300022838
:100E000046D13068800303D56068002800F0108167
:100E10002078800776D5306910F0380F1ED0306901
:100E200000F03800182804BFB06A5FEA807015D05F
:100E3000E068316800283FD021F019010843306094
:100E4000FFF766FD054600BF3068400744D4FFF752
:100E50005FFD401B0228F7D959E100BF3068400709
:100E6000E06802D5002800F0E380316821F0190124
:100E700008433060FFF74CFD054600BF306840076F
:100E800032D4FFF745FD401B0228F7D93FE100BFF0
:100E9000606800286CD0B0F5A02F00F08180B0F51C
:100EA000803F00F08180306820F48030306030680E
:100EB00020F480207BE000BF21F001003060FFF7CC
:100EC00027FD0546306840071CD5FFF721FD401B74
:100ED0000228F7D91BE100BF70684FF47C3122690A
:100EE00091FAA1F106E000BF706822694FF47C31ED
:100EF00091FAA1F1B1FA81F120F47C3002FA01F10A
:100F0000084370602078C00640F18080306900F0AE
:100F10003800082809D0306900F03800182813D1AB
:100F2000B06A00F0030001280ED13068C00503D577
:100F3000E069802840F07C807068226A4FF0F841B8
:100F400091FAA1F15AE000BFE069002830683DD075
:100F500040F080003060FFF7DBFC05463068C005DC
:100F600046D4FFF7D5FC401B0228F7D9CFE000BFDD
:100F7000306820F480303060306820F480203060A9
:100F8000FFF7C6FC054600BF306880037FF540AF21
:100F9000FFF7BEFC401B64284FF00300F4D90EE1BC
:100FA000306840F480203060306840F48030306039
:100FB000FFF7AEFC054600BF306880033FF528AF61
:100FC000FFF7A6FC401B6428F6D9A0E020F08000C3
:100FD0003060FFF79DFC05463068C00516D5FFF769
:100FE00097FC401B02284FF00300F5D9E7E000BF53
:100FF00070684FF0F841226A91FAA1F1B1FA81F1DB
:1010000020F0F84002FA01F10843706020780007F0
:1010100012D42078800623D42078400734D4656A1F
:10102000002D00F03181306900F03800182871D1AE
:10103000012001B0F0BD00BF60690028706F37D09B
:1010400040F001007067FFF763FC0546706F800792
:10105000DFD4FFF75DFC401B0228F7D957E000BF43
:10106000A0690028306843D040F480503060FFF71A
:101070004FFC054630688004CED4FFF749FC401B86
:101080000228F7D943E000BFD6F8000440F480708E
:10109000C6F80004FFF73CFC054600BFD6F8000484
:1010A000C00515D4FFF734FC401B6428F6D92EE0A8
:1010B00020F001007067FFF72BFC0546706F80077A
:1010C000A7D5FFF725FC401B0228F7D91FE000BF7A
:1010D000A068002840D0052858D001285AD0306F89
:1010E00020F001003067306F20F0040055E000BFB1
:1010F00020F480503060FFF70BFC05463068800418
:101100007FF58AAFFFF704FC401B0228F6D90320C5
:1011100001B0F0BD306820F080703060FFF7F8FB60
:10112000022D05460CD100BF306880014AD5FFF77B
:10113000EFFB401B02284FF00300F5D93FE000BF52
:101140003068800140F1A080FFF7E2FB401B0328DC
:101150004FF00300F4D332E0306F20F0010030672D
:10116000306F20F004003067FFF7D2FB054641F2F4
:10117000883700BF306F80077FF551AFFFF7C8FB9E
:10118000401BB8424FF00300F4D918E0306F40F034
:1011900004003067306F40F001003067FFF7B8FBA4
:1011A000054641F2883700BF306F80073FF537AF03
:1011B000FFF7AEFB401BB8424FF00300F4D901B07B
:1011C000F0BD00BF04F12807B06A40F2F331884354
:1011D0008ECF0843591E40EA02104FF47E426FF34F
:1011E0005F21B06202EB47204FF4FE0280B2E36B56
:1011F0000844A16B02EB01414FF0FE4201F4FE01F5
:1012000002EB0362084402F0FE4108443063706B55
:101210004FF6F871A26C91FAA1F3B3FA83F3884305
:1012200002FA03F108437063F06A20F00C00D4E97D
:1012300010120843F062F06A20F002001043F062DE
:10124000F06A40F48030F062F06A40F40030F062FE
:10125000F06A40F48020F062F06A40F00100F06231
:10126000306840F080703060FFF752FB044600BFEA
:101270003068800108D4FFF74BFB001B02284FF0B9
:101280000300F5D99BE700BF002001B0F0BD0000CE
:10129000411E0020B0EB116F02D00120704700BF4B
:1012A0004EF21002F023CEF2000251604EF62351AE
:1012B000CEF200010B7007219060116070470000B2
:1012C000FFF72EBB0000000010B59CB044F61800DC
:1012D0000021C5F602000891CDE91011CDE90E11EB
:1012E000CDE90C11CDE90A11CDE90611CDE90411C2
:1012F000CDE90211019150F80C2C22F0040240F8C3
:101300000C2C0091016841F440410160016801F436
:1013100040410091009900BF016889045FBF0168E6
:101320005FEA814101685FEA814102D40168890472
:10133000F2D50220099001210C9120210D911290EB
:10134000002404213222CDE91520CDE917100C200C
:101350001394CDE9190409A814911B94FFF738FDE3
:1013600010B100BFFEE700BF3F20019003204FF403
:101370008061CDE90204082004904020CDE90500F9
:10138000CDE9071001A80221FFF77EFB10B100BFD5
:10139000FEE700BF1CB010BD44F200404EF67F5384
:1013A000C5F60200CEF6F623016841F001010160A6
:1013B0000021016102681A4002608161C16101621D
:1013C0008162C162016341638163C16301644164FD
:1013D000026822F480220260016648F20810C5F219
:1013E0000010012101604EF60850CEF200004FF0CF
:1013F000006101607047000040F60061CEF200011C
:10140000D1F88020D2071CBF09685FEAC17101D101
:10141000704700BF4FF060410A687AB900BF0A68A0
:10142000002A01BF00BF0A68002A00BF04BF0A6883
:10143000002A03D100BF0A68002AEFD00870704765
:1014400086B0FFF77DFAFFF73FFF44F2E04000244B
:10145000C5F6020041F60008CDE904440168C5F66E
:10146000020841F0040101600168A8F5A05601F0EE
:10147000040100910099016841F080010160016858
:10148000002201F0800100910099016841F0010102
:101490000160016801F0010100910099016841F0CB
:1014A00002010160016801F00201009100990168E8
:1014B00041F008010160016801F008010091009904
:1014C000016841F04001016000684FF4814100F083
:1014D0004000009000983046FFF712FA40210022A9
:1014E0004046FFF70DFA0020A8F5805701ADC1F284
:1014F0001110CDE90204384629464FF4005BCDF8BF
:1015000004B0FFF731F932200190384629464FF0F8
:1015100002090494CDE902944FF00B0ACDF814A00F
:10152000FFF722F9A8F5C0578620CDE90109384612
:101530002946CDE90344CDF814A0FFF715F930464C
:101540002946CDE901B9CDE90344CDF814A0FFF750
:101550000BF94FF481400190304629464FF0010BC2
:101560000494CDE902B4FFF7FFF84FF44070294628
:10157000CDE9010907200590A8F54060CDE90344B5
:10158000FFF7F2F840202946CDE9010B4046CDE9AE
:101590000344FFF7E9F880202946CDE901044046DD
:1015A0000394FFF7E1F84FF4E8502946CDE901092B
:1015B0000A2005903846CDE90344FFF7D5F84FF4EB
:1015C00020502946CDE901094046CDF814A0CDE9C7
:1015D0000344FFF7C9F842F29D20C0F60000FEF771
:1015E000CFFE0A20FFF7ACF8FFF75AFB4DF68361F8
:1015F0004000C4F21B31A0FB010142F2AB20C0F657
:101600000000890CFEF7BCFE0A20FFF799F8FFF7EF
:101610007FF90446FFF77CF9041B42F28A20C0F6EA
:1016200000002146FEF7ACFE0A20FFF789F8FFF71D
:101630006FF90546FFF76CF92919411A18A0FEF752
:101640009FFE0A20FFF77CF8FFF762F90546FFF7D7
:101650005FF92919411A18A0FEF792FE0A20FFF738
:101660006FF8FFF755F90546FFF752F92919411AA6
:1016700017A0FEF785FE0A20FFF762F8FFF748F98A
:101680000546FFF745F92919411A18A0FEF778FE1B
:101690000A20FFF755F81CA0FEF772FEFEE700BF18
:1016A000636F6E7374616E747320696E74203D2075
:1016B0002564206D730A00007661726961626C6551
:1016C0007320696E74203D202564206D730A00002C
:1016D000636F6E7374616E747320666C6F617420D7
:1016E0003D202564206D730A000000007661726958
:1016F00061626C657320666C6F6174203D202564A7
:10170000206D730A000000000A0D5468652074659E
:101710007374732061726520636F6D706C6574659E
:10172000642E0A0D000000001CF0700F08BF0A466E
:101730000FB403B42DE90C50FEF70CFFBDE80C50BC
:10174000024603BC11680CF0405030EA814318BFD8
:101750004CF0804C4FEA4C034FEAD36323EA112349
:1017600010EA814F18BF23F0100341EA030101F092
:10177000E0734CEA030C11600CF00F030A2B1DBF41
:10178000082B0CF070034CEAC30C4FF4003304BF79
:1017900033EA0C034CF4400C1CF0005F14D11CF035
:1017A000805F0BD11CF0804F31D11CF0006F12D143
:1017B00011F4807F0FBC47D000F017BD11F4806F8B
:1017C0000FBC2BD000F011BD11F4006F0FBC08BF8F
:1017D000704700F00ABD11F4007F0FBC40F0058592
:1017E0001CF0400F1EBF4FF0004040F0010070475A
:1017F0001CF0100F14BF81EA030242400CF00F00EE
:101800000A2808BF4FF0FF324FF000030FE011F439
:10181000805F0FBC08BF704700F0E7BC2CF0805C15
:101820001CF0800F14BF01F0004200F0004202F0F3
:1018300000421CF0100F1DBF0FF28C0003C81143B3
:10184000234808BF104370471CF0400F40F0288029
:101850001CF4404F1BD01CF4004F1CBF194610460F
:101860000CF4807218BF8CEA520C1CF0800F0CBF75
:1018700040F4800041F400218CEADC0313F0100FE7
:101880001CBF2CF00F0C4CF0080C00F055BC1CF0E9
:10189000100F1ABF0FA393E80300104800F04CBCD0
:1018A0001CF0800F14BF01F0004200F000421CF059
:1018B000100F1BBF07A393E803000848114308BF9C
:1018C000104300F039BC00BF000000000000F07FB2
:1018D0000000807F000000000000F87F0000C07F53
:1018E00080EA400281EA410312F0FE4F18BF13F074
:1018F000FE4F00F04E8090EA010F48BF81F000419A
:1019000000F1F682421A3CBF801A89184FEAD05281
:10191000A2EBD1534FF0004C4CEA00204CEA0121DD
:1019200021FA03FC10EB0C0C22D202F1FF325FEA29
:101930001C2040EBC25038BF70471CF07F0F4FEAAD
:10194000400C18BFBCF17F4F38BF7047C3F1200374
:10195000994008BF20F00100BCF17F4F38BF7047AD
:10196000A0F1C0404FF0010C4CF0805CFFF7DCBEF2
:101970004FEA3C00000A40EBC25028BF1CF0FF0FAA
:101980004FEA400CE2D018BFBCF17F4F38BF704720
:10199000E6E74FF07F4C3CEA400218BF3CEA4102C8
:1019A00036D090EA010F48BF81F0004100F10C836E
:1019B000421A3CBF801A89184FEAD052A2EBD15389
:1019C000090219D04FEA002012F0FF0F1CBF40F0AF
:1019D00000405B1EA4D108444FEA102040EAC250E8
:1019E00010F4000F18BF70474FF0010200F07CBBED
:1019F0005FEA400C08BF00205FEA026C18BF704726
:101A000030F0004C08BF70474FF0010200F06CBB93
:101A100010B500F0AFF900BF64FBBE3E010000044A
:101A20004FF47F0C1CEAD0121EBF1CEAD11392EABD
:101A30000C0F93EA0C0F00F0958090EA010F48BF5D
:101A400042F4807240F4000C41F400002CF07F411D
:101A500020F07F4000B5A2EB030281420FF21E1C72
:101A6000ACEB504E9EF800E0C0F100004FEA4E0E85
:101A700000FB0EFC38BF49004FEA2C1C0CFB0EF398
:101A80004FEACE1E0EEB635E4FEA112C0EFB0CFCF0
:101A90004FEAC1214FEA1C5300FB031102F5FA0281
:101AA0004FEA112C0EFB0CFC4FEA01314FEADC4CE3
:101AB00000FB0C1142EB2242C14228BF09184CEB3B
:101AC00003335DF804EB490018BF11EB000143EB51
:101AD000C250B2F57C0F38BF704731D512F0F00F0D
:101AE00008BF704700F1C0400A0018BF4FF08042A5
:101AF00048BF4FF0404242F0040200F088BA008133
:101B000082838485868788898B8C8D8E8F91929332
:101B1000959697999A9C9D9FA0A2A3A5A7A8AAACC9
:101B2000AEB0B2B3B5B7B9BCBEC0C2C5C7C9CCCEE2
:101B3000D1D4D7D9DCDFE2E6E9ECF0F3F7FAFE0026
:101B40004FEA400C0CF1807CBCF17E4F28BF7047FF
:101B5000A0F1C040DFF880C0094218BF4CF0804CB3
:101B6000FFF7E2BD0CEAD11390EA010F48BF42F43F
:101B70008072624538BF634511D25FEA410C22D0C2
:101B80005FEA400C04BFD00570470FF2070C00F06D
:101B90006CB94FEA102C4FEA112061465AE710B594
:101BA00000F0E8F8097EFC3E0400000400F005B8EF
:101BB00080EA010000F00040704780EA010000F078
:101BC000004000F07EB95FEA400C5FF824C018BF07
:101BD0008CF0406CFFF7A8BD04000010C10DD1F1DE
:101BE0009E0206DB4FEA002343F0004323FA02F093
:101BF0007047004207D54FEA4001B1F1FE4F02D2D3
:101C00004FF00000704710B500F0B4F8000000BFBE
:101C100068000304DFF808C0FFF786BD704700BF07
:101C200068000204B0FA80F310FA03F2C3F19D03D6
:101C30000AD0D90501EB1220530638BF704700F1D6
:101C4000010008BF20F00100704700004FF47F0C36
:101C50001CEAD0121EBF1CEAD11392EA0C0F93EAC1
:101C60000C0F00F0558090EA010F48BF42F48072DB
:101C70004FF0004C4CEA00204CEA012102EB030239
:101C8000A0FB0113A2F50002002918BF43F00103D5
:101C90005B0028BF4FEA330342EB22425FEA132C7A
:101CA0004CEBC2502EBFBCEB436FB2F57C0F7047BC
:101CB0004FEA036CBCF1004F08BF20F00100B2F501
:101CC0007C0F38BF704717D582F0FF0212F5803FB6
:101CD000C8BF704700F1C0401A0609D04FF000425B
:101CE000B2EB036F08BF5B0822EA036242F0804256
:101CF00042F0030200F08BB900F5000C5FEA4C0CD7
:101D000048BF7047A0F1C040DFF864C0FFF70CBDCA
:101D10000CEAD11390EA010F48BF42F48072624589
:101D200038BF63450AD25FEA400C12BF5FEA410C3C
:101D3000D0057047AFF2BB0C00F097B810B500F0BB
:101D400019F800BF8900013E0300000400F005B847
:101D500000F007B85FEA410C06D080EA010000F00D
:101D6000B0B85FEA400CF8D15FF824C0FFF7DCBCE4
:101D7000030000100EF1020E2EF0030E5EF8044B6D
:101D80004FEA400212F1807218BFB2F5000F22D361
:101D9000244207D44FEA410313F1807318BFB3F50F
:101DA000000F18D34FEA400C1CF5000F16D2244246
:101DB00004D44FEA410C1CF5000F0FD2002A10D1B9
:101DC0004FEAD07C0CEB4C0C0CF1020C002B08BF42
:101DD0004CEBD17C07E04FF0090C04E04FF0080C0D
:101DE00001E04FEAD17C0CEB4C030EF1040E24FA17
:101DF00003F404F00704B4F1040C06D20EEB840CD7
:101E0000BDE810404CF0010C6047DFE80CF01F20EB
:101E100013025EF804CC1B2B08D1002A88BFB2F550
:101E2000000F34BF4CF4804C4CF4004CBDE8104023
:101E3000FFF77ABC002A88BFB2F1807F28BF08462E
:101E400010BD4FF00040A0F5800010BD08464200D4
:101E500018BFD2F1807284BF5EF8042C22F0806239
:101E6000BDE8104000F24081704710B44FEA0020F6
:101E70004FEA012112F47F0F10D1B0FA80F4A2EBE7
:101E8000044202F5803200FA04F013F47F0F18BF09
:101E900041F0004100D010BC18BF604740F0004046
:101EA000B1FA81F4A3EB044303F5803301FA04F1A2
:101EB00010BC604710B5FEF74DFB4FF0000101600C
:101EC00010BDFF2141EAD050C005704780EA4002B2
:101ED00081EA410312F0FE4F18BF13F0FE4F00F0ED
:101EE000648090EA010F48BF81F000413FF50AADE0
:101EF000421A04D882F00042A0EB020011444FEADB
:101F0000D052A2EBD1534FF0004C4CEA00204CEAE7
:101F1000012121FA03FCB0EB0C0C0FD412F0FE0FE0
:101F20003DD05FEA4C001DD5001240EBC25038BFD7
:101F300070471CF03F0F18BF70470BE05FEA1C2092
:101F4000A2F1010240EBC25038BF70471CF07F0F76
:101F500018BF7047C3F12003994014BF401E20F002
:101F6000010070474FEA1223800808BF7047B0FA9B
:101F700080FCA2EB0C02CCF1280C60FA0CF093EA86
:101F8000122F04BF00EBC2507047C2F1000220FACA
:101F900002F040EAC3704FF0020200F0A5B8130A45
:101FA0005FEADC1008BF7047F1E74FF07F4C3CEA76
:101FB000400218BF3CEA41021ED090EA010F48BF20
:101FC00081F000413FF5F4AC421A3EBF82F000427E
:101FD000801A89184FEAD052A2EBD15309023FF47C
:101FE00007AD4FEA002012F0FF0F1ABF40F000408B
:101FF0005B1E521CFFF78DBF10B5FFF7BBFE00BF85
:1020000040DFF63E0100000481F00040704703B459
:102010002DE90C50FEF79EFABDE80C50844603BC37
:10202000DCF8001011F0807F1CBF00F0004070470A
:1020300011F4006F40F07C8000F0004343EAD0537D
:1020400023F48073C3F1C10323F0004117292FD873
:10205000C3F1200310FA03F1C3F1200320F07F4005
:1020600040F4000020FA03F003F0004340EA0300CC
:1020700013D00B46DCF8001041F00801CCF800103A
:10208000590009D318BF401C06D17FEAE27398BFFC
:10209000401C38BF20F00100704712F0804F08BF8D
:1020A0007047DCF8001041F00801CCF800107047D0
:1020B00003EB9123182918BF6FF000410131DCF8C0
:1020C000001041F00801CCF8001068BF03F0004098
:1020D00009D6400203F0004000F1010004BF12F0F5
:1020E000004F20F00100704703B42DE90C50FEF7BB
:1020F00031FABDE80C50844603BCDCF8001011F046
:10210000807F1CBF00F00040704711F4006F08BFD3
:10211000704700F0004141F0C04120F00040B0FAAB
:1021200080F3A3F1080300FA03F0A1EBC3510844C4
:1021300042F0005C00F059B80CF00F03092B08BF07
:10214000082000F064800A2B32D0082B18BF70479B
:1021500008BF1CF0400F31D01CF4803F23D11CF08D
:10216000200F11D11CF0100F0BBF02460A466FF072
:1021700000406FF0004118BF4FF0FF3012F0004FE9
:102180001CBFC043C94370471CF0100F0CBF024670
:102190000A4612F0004F4FF0FF304FF0FF311CBFE6
:1021A000C043C94370474FF000004FF00001704733
:1021B0001CF0400F18BF4FF0004070471CF0100F8C
:1021C00008D000F07F4220F0704342EAD3014FEA8A
:1021D0004370704700F0604021F07F4242EA000205
:1021E00001F07F4040EA727070472DE900502DE900
:1021F0000050FEF7F9F9BDE80050BDE800500CF0C2
:102200000F0393F0090F18BF7047AFF300801CF461
:10221000801F2DD01CF4E02F09D010F0080F02D140
:10222000D0F1020070476FEACC31490070474FF09F
:10223000604111EA407028BF40F0405003B42DE9DE
:102240000C50FEF787F9BDE80C50844603BCDCF85F
:10225000003023F0704343EA0003CCF80030EFF382
:10226000008222F0704242EA000282F30088704746
:102270001CEA004018BF0120704700000000010266
:10228000030401020304060708094C6F6F702074F1
:10229000696D65203D202564206D730A00537461CB
:1022A000727465642E2E2E0A0A0D004578656375DA
:1022B00074696F6E206672657175656E6379203D15
:1022C000202564204D487A0A0A0D0000F0220008FB
:1022D0000000002010000000D402000800230008C5
:1022E00010000020B8080000F00200080000000004
:1022F00001000000100000000090D0030090D00307
:040000050800029954
:00000001FF
