:020000040800F2
:10000000C8080020E1030008E9030008EB0300082A
:10001000ED030008EF030008F103000800000000F2
:10002000000000000000000000000000F3030008D2
:10003000F503000800000000F7030008E92E00089F
:10004000FB030008FB030008FB030008FB03000898
:10005000FB030008FB030008FB030008FB03000888
:10006000FB030008FB030008FB030008FB03000878
:10007000FB030008FB030008FB030008FB03000868
:10008000FB030008FB030008FB030008FB03000858
:10009000FB030008FB030008FB030008FB03000848
:1000A000FB030008FB030008FB030008FB03000838
:1000B000FB030008FB030008FB030008FB03000828
:1000C000FB030008FB030008FB030008FB03000818
:1000D000FB030008FB030008FB030008FB03000808
:1000E000FB030008FB03000800000000FB030008FE
:1000F000FB030008FB030008FB030008FB030008E8
:10010000FB030008FB030008FB030008FB030008D7
:10011000FB030008FB030008FB030008FB030008C7
:10012000FB030008FB030008FB030008FB030008B7
:10013000FB030008FB030008FB030008FB030008A7
:1001400000000000000000000000000000000000AF
:10015000FB030008FB030008FB030008FB03000887
:10016000FB030008FB030008FB030008FB03000877
:10017000FB030008FB030008FB030008000000006D
:10018000FB030008FB030008FB030008FB03000857
:10019000FB030008FB030008FB030008FB03000847
:1001A000FB030008FB030008FB030008FB03000837
:1001B000FB030008FB030008FB030008FB03000827
:1001C000FB030008FB030008FB030008FB03000817
:1001D000FB030008FB030008FB030008FB03000807
:1001E000FB030008FB030008FB030008FB030008F7
:1001F000FB030008FB030008FB030008FB030008E7
:10020000FB030008FB030008FB030008FB030008D6
:10021000FB030008FB030008FB030008FB030008C6
:10022000FB030008FB030008FB03000800000000BC
:10023000FB030008FB03000800000000FB030008AC
:10024000FB030008FB030008FB030008FB03000896
:10025000FB030008FB030008FB030008FB03000886
:10026000FB030008FB030008FB030008FB03000876
:10027000FB030008FB030008FB030008000000006C
:10028000FB03000800000000FB0300080000000062
:1002900000000000FB03000800F002F800F090F8F6
:1002A0000AA090E8000C82448344AAF10107DA45D1
:1002B00001D100F085F8AFF2090EBAE80F0013F093
:1002C000010F18BFFB1A43F001031847B43E0000AA
:1002D000D43E0000103A24BF78C878C1FAD852073B
:1002E00024BF30C830C144BF04680C6070470000B0
:1002F0000023002400250026103A28BF78C1FBD82F
:10030000520728BF30C148BF0B6070476E2900F00C
:100310005B81702900F09182662903F0608665296F
:1003200003F05D86672903F05A86612903F0598638
:1003300003681B0A28BF41F08001692900F0088189
:10034000642900F00581752900F002816F2900F011
:100350001F82782900F05D82E92900F0B981E42943
:1003600000F0B681F52900F0B381EF2900F01C827E
:10037000F82900F05C820368DB0928BF41F08001A6
:10038000632900F07587732900F07A87E32900F06C
:100390008587F32900F08A87002070471FB500F099
:1003A000DFFF04000020002103F06AFB401C6060B6
:1003B0000020002103F04EFBE0601FBD10B510BD12
:1003C00000F0A0FF1146FFF7E9FF02F0B9FE01F0CF
:1003D0007DF803B4FFF7F2FF03BC01F0C3F800009F
:1003E0000948804709480047FEE7FEE7FEE7FEE7C9
:1003F000FEE7FEE7FEE7FEE7FEE7FEE70448054905
:10040000054A064B70470000C92F000899020008F2
:10041000C8000020C8080020C8040020C80400202C
:100420000FB4044910B503AA029800F0E1F810BC1B
:100430005DF814FB700000204FF0000200B5134679
:1004400094469646203922BFA0E80C50A0E80C50F4
:10045000B1F12001BFF4F7AF090728BFA0E80C50A5
:1004600048BF0CC05DF804EB890028BF40F8042B9E
:1004700008BF704748BF20F8022B11F0804F18BF0B
:1004800000F8012B704770477047704770B50446FD
:1004900085690068C10601D5302600E02026C00726
:1004A00007D070BDD4E9012130469047206A401C36
:1004B00020626D1EF6D570BD70B504468569007862
:1004C000C00707D170BDD4E9012120209047206AE0
:1004D000401C20626D1EF6D570BD09684A0501D525
:1004E00040B27047C905FCD500B2704709684A059B
:1004F00001D5C0B27047C905FCD580B2704770B550
:100500000C460546012A05D02878800600D5EA6900
:10051000002302E0012305E05B1C934202D2E05C71
:100520000028F9D1A869E618C01AA861286A1844F9
:1005300028622846FFF7AAFF04E0D5E9012114F854
:10054000010B9047B442F8D32846FFF7B5FF70BDC2
:100550002DE9F0410646002410687529314616A59C
:1005600010D0FFF7BAFF002802DA404213A507E0D7
:1005700031688A0701D512A502E0490704D511A503
:10058000012401E0FFF7B2FF00210A2206F124074F
:1005900009E0B0FBF2FCB0FBF2F302FB1C003030D0
:1005A00078541846491C0028F3D123462A46304681
:1005B000BDE8F04100F055BA000000002D00000039
:1005C0002B0000002000000011680268006A53053B
:1005D00001D508700AE0D30501D5088006E01306AE
:1005E00003D5C217C1E9000200E00860012070478E
:1005F000074B70B50D467B4400F01DFE04462846AF
:1006000000F058FE10B14FF0FF3070BD204670BDB5
:100610002F2B00002DE9FF5F15468A460446DFF8C0
:10062000AC80F8440027D8E900103E46CDE9001020
:1006300010E03AF816106A4602A800F03FFE411C8E
:1006400007D02178890603D5E269391891420DD87F
:100650000744761C2078800602D5E069B84205DDA3
:10066000AE42E6DB3AF816000028E2D1A069C01BD2
:10067000A0612046FFF70AFFD8E90010CDE900107D
:10068000002017E03AF818106A4602A800F016FE9B
:10069000B0F1FF3F81460BD000250DF1080B05E0BE
:1006A000D4E901211BF8050090476D1C4D45F7D397
:1006B00008F10100B0428046E4DB206A3844206241
:1006C0002046FFF7F9FEBDE8FF9F0000C239000099
:1006D0002DE9F0418046D21D22F007020025D2E923
:1006E0000002F52915A614D0011E72F1000106DAE8
:1006F0000023D0EB030063EB020211A608E0D8F858
:1007000000108B0701D50FA602E0490701D50EA600
:1007100001251146002408F1240704E000F05CF9EB
:1007200030323A55641C50EA0102F7D12B4632466A
:1007300021464046BDE8F04100F093B900000000BA
:100740002D0000002B0000002000000030B400212C
:1007500000F1240408E002F00705D208303542EA2F
:100760004372DB086554491C52EA0305F3D104685F
:10077000002310A2250708D504F020040C4304D060
:10078000C46901230CA2641EC46130BC00F069B9C5
:1007900010B5044621461068FFF7A8FE0246204621
:1007A000BDE810400023D1E7D21D22F00701D1E9B6
:1007B0000023CBE70000000030000000F0B40D463D
:1007C0000188090502D5214C7C4402E01F4C7C4481
:1007D0000E34002100F1240608E002F00F07120990
:1007E000E75D42EA03721B097754491C52EA03078A
:1007F000F3D102780023120704D5702D06D009B179
:10080000022311342246F0BC00F02BB9012310342E
:10081000F8E770B504460D4621461068FFF766FEFE
:10082000024629462046BDE870400023C6E7D21D97
:1008300022F00703D3E90023C0E70368126843F0FE
:10084000200303600823C3610023B7E724380000B6
:100850002DE9F05F894604464FF0000ADFF874B1D5
:10086000FB44C0F820A02046E1688847002874D0E7
:10087000252806D0D4E901219047206A401C206237
:10088000F1E700265F462046E168884720280546B4
:1008900007DB312D05D2781910F8200C08B106437A
:1008A000F1E7B00701D526F00406C4F81CA0002724
:1008B000C4F818A02A2D09D0284603F0C3F838B38D
:1008C00004EB8708303DC8F8185019E059F8041BAC
:1008D000204604EB87029161E1688847012F0546B5
:1008E00018D1E069002820DA26F020061DE0D8F8AB
:1008F000180000EB800005EB40003038C8F8180005
:100900002046E1688847054603F09CF80028EED1B0
:10091000012F0AD02E2D08D12046E16888477F1C80
:100920000546022F46F02006C4DBA069002803DA42
:10093000404246F00106A061F00701D026F0100603
:100940006C2D0BD0682D09D04C2D39D06A2D35D0A7
:10095000742D35D07A2D33D016E038E0E1682F467B
:1009600020468847B842054609D16C2F26D04FF45F
:100970008060E168064320468847054604E06C2F06
:100980001AD04FF4807006430DB3A5F14100192829
:1009900002D8203546F400664A462946204626609D
:1009A0004E46FFF7B3FC80B101280BD0F61D26F0B0
:1009B000070000F1080956E74020E4E78020D8E767
:1009C0000020D6E706F104094DE7284652E7206AE1
:1009D000BDE8F09FB437000030B5B0F10A0271F104
:1009E00000034FEA900E4EEA817EB0EB0E0061EB01
:1009F00091014FEA101E4EEA017E10EB0E0041EB12
:100A000011114FEA102E4EEA016E10EB0E0041EB71
:100A100011214FEA104E4EEA014E10EB0E0041EB51
:100A20001141401841F100014FEAD00040EA417005
:100A30004FEAD1014FEA810444EA907410EB80053B
:100A400044EB01046D1944EB0404521BA3414FF025
:100A5000000348BF0A3200D530BD401C41F10001FF
:100A600030BD2DE9F0470D4699469246044600F107
:100A700024080168880604D5E06921F0100121608E
:100A800000E00120A84201DD471B00E00027A1692A
:100A90007A1902EB0900081AA0612078C00602D476
:100AA0002046FFF7F3FC002608E0D4E901211AF8FC
:100AB00006009047206A401C761C20624E45F4DBFD
:100AC0002078C0060AD52046FFF7E0FC06E0D4E90E
:100AD000012130209047206A401C2062381EA7F177
:100AE0000107F4DC07E0D4E9012118F8050090477C
:100AF000206A401C2062281EA5F10105F3DC204677
:100B0000FFF7DAFC2078000602D50220BDE8F08766
:100B10000120FBE72DE9FF4F0C461E464FF0FF3743
:100B20008BB0D2E90001DDF860800A908A46C1F3FB
:100B30000A5505B93D46002108464FF00000BAF1BC
:100B4000000F00F4400005DA00EB80004FF4400194
:100B500001EA50004FEA9059B9F1010F00DDB946A2
:100B60000A9850EA4A000ED044F61050A5F2FF351C
:100B700045432F14B8F1000F1ED07542291E1EDD0B
:100B8000C9F100021CE0B8F1010F4FF0000001D0E4
:100B9000302103E0F24305E02154401CB042FBDB6E
:100BA00030460022002121540B99C1F80880C1E988
:100BB00000200FB0BDE8F08FBD1B6D1CDEE74A467C
:100BC00000DA694206A800F00FFC06AB93E80700C4
:100BD00003AB83E8070050460A9902F056FB8DE804
:100BE0000700A0F500501F3800900398002D0ADD83
:100BF00042F21F014A460844002303A903906846B5
:100C000002F0C0FD09E0A0F500504A461F3800235D
:100C100003A90390684602F0CAFD8DE807000004AE
:100C2000000C03D04FF0FF30410800E01046B8F14F
:100C3000000F03D00022009215461EE0751E05D459
:100C4000FFF7CAFE303262556D1EF9D5B346012258
:100C5000084302D000227F1C04E02078302801D114
:100C600000227F1E002A099784D01DE0112D07DA8B
:100C7000FFF7B2FE303262556D1C50EA0102F5D129
:100C8000084302D00098C8B10EE00021681E05E0BC
:100C9000235C625C63542254401E491C8142F7DB92
:100CA000AB46A81B401E0990002004F80B000B98CF
:100CB000099AC0F80880C0E9002B7AE711264FF0A6
:100CC000000857E72DE9F04F88460446D21D22F070
:100CD000070191B0D1E90001CDE90A0102F09EFEC1
:100CE00002460B98C00F01D02D2007E02068810735
:100CF00001D52B2002E0202101EAC000032A09903F
:100D000001D0072A05DB03464146204600F02CFBB4
:100D10000BE12078800601D5E06900E00620B8F1FB
:100D2000650F814606D0B8F1660F18D0B8F1670F8D
:100D300070D131E00020B9F1110F009001DB1123D7
:100D400001E009F101030AAA01A90CA8FFF7E2FEDC
:100D5000DDE90C70002609F10105834647E001201A
:100D60004B4600904FF000470AAA01A90CA8FFF7D4
:100D7000D1FEDDE90DB00C995D46002610B909F1F0
:100D800001000D18B9EB050003D4C0F1FF3609F1DD
:100D90000105A5EB09002BE0B9F1010F01DA4FF0D5
:100DA00001090020B9F1110F0090484601DD11231F
:100DB00000E003460AAA01A90CA8FFF7ABFEDDE993
:100DC0000C704D4600268346207800070AD4AB45B8
:100DD00000DA5D4601A8012D04DD411911F8011C5E
:100DE000302907D04F4502DA17F1040F04DA012049
:100DF00082460FE06D1EEEE7002F02DCED1B3E4445
:100E000003E0781CA84200DD7D1CB81B00F1010A3C
:100E10004FF000472078000703D4AA4501DB4FF0CC
:100E2000FF3A0021B7F1004F0DF143088DF8431050
:100E300024D002202B23002F01DA7F422D230A2108
:100E4000021EA0F1010000DC5FB197FBF1FC97FBF3
:100E5000F1F201FB1C7C17460CF1300C08F801CDB7
:100E6000EEE7A8F1010003702188090501D54521AD
:100E700000E06521A0F1010800F8011C09980FA904
:100E8000A1EB0807FF1D00B10120411901EBEA7039
:100E9000A1693844081A401EA0612078C00602D417
:100EA0002046FFF7F3FA099828B1D4E901219047C9
:100EB000206A401C20622078C00622D52046FFF719
:100EC000E5FA1EE0002E04DBB34502DD01A8805DDB
:100ED00000E03020D4E901219047206A401C2062C4
:100EE000761CAAF101005FEA000A0AD100F038FA84
:100EF000C0680168405CD4E901219047206A401C29
:100F00002062281EA5F10105DCDC07E0D4E90121FF
:100F100018F8010B9047206A401C2062381EA7F188
:100F20000107F3DC2046FFF7C7FA032011B041E6C2
:100F30002DE9F04F04460D46D21D22F0070089B07E
:100F4000D0E900974846394602F068FD0246F80F9E
:100F500001D02D2307E02068810701D52B2302E073
:100F6000202101EAC0038DF820300BB1012000E000
:100F70000020032A824601D0072A04DB29462046A6
:100F800000F0F2F93FE12078800601D40D2500E061
:100F9000E569C7F30A560D2D49DA00214FEA175BC0
:100FA00008464FF00000002F00F4400007DA00EB85
:100FB00080004FF4400100EBD07001EA6000811521
:100FC000012901DD4FF0FF3100224FEA850CBCF111
:100FD000180F06D31346ACF118004FF08052C240F0
:100FE00003E04FF4801323FA0CF30CF10C0CBCF16A
:100FF000200F04D3ACF1200C09FA0CF001E007FA41
:101000000CF000294FF0004801DD18B90FE00ED1B7
:1010100040450CD319EB02095F4121B9404502D18B
:101020009F4329EA0209BBEB175F00D0761C20889A
:10103000000502D57B48784402E07A4878441938A4
:1010400008AA302302F80A30037C0AF10101002EBD
:101050000AF1020A53546A4602DC4FF0300101E003
:101060004FF031014FF001088DF8001002D0A6F2C8
:10107000FF3603E059EA470100D06B4E002D02DC39
:101080002178090704D54FF002082E218DF80110B0
:10109000C44600210BE0C7F303433F01C35C491C76
:1010A0006D1E02F80830052908F1010801DA002D4B
:1010B000F1DC00210CE000EB1973491C1B786D1E5C
:1010C000082902F808304FEA091908F1010801DA85
:1010D000002DF0DC21688B0602D516E0A8F101088E
:1010E000E04505DD02EB080313F8013C302BF5D099
:1010F000B8F1000F09DD02EB080313F8013C2E2BB9
:1011000003D1090701D4A8F10108002D05DD3E2116
:1011100002F808106D1E08F10108407C002E02F84C
:10112000080008F1010804DA2D20764202F80800D0
:1011300002E02B2002F808000A214FF47A70864260
:1011400008F101080BDB96FBF0F3303302F80830AE
:1011500096FBF0F308F1010800FB136601E0642E32
:101160000CDB642096FBF0F3303302F8083096FB7A
:10117000F0F308F1010800FB136601E00A2E06DB1C
:1011800096FBF1F0303002F8080008F1010896FBF8
:10119000F1F001FB1060303002F80800A16908F19D
:1011A000010808EB050202EB0A00081AA06120788A
:1011B000C00602D42046FFF769F9216A08AE01EBA8
:1011C0000A00206204E0D4E9012116F8010B9047DF
:1011D000BAF1010AF7D22078C00602D52046FFF7FF
:1011E00055F96E4609E016F8010B3E280FD0D4E9F8
:1011F00001219047206A401C2062B8F10108F2D218
:101200002046FFF759F909B00320BDE8F08F206AA6
:101210002844206203E0D4E90121302090476D1E6C
:10122000EBD3F8E70230000002FCFFFF01694A1C23
:1012300002610878704700B58FB0CDE90131002117
:10124000059105497944CDE9031011466846FFF739
:10125000FFFA0FB000BD0000E5FFFFFF10B54369C6
:1012600013B1AFF3008001E0FFF749F9012010BD91
:10127000127800F124010A7000224A700122EDE781
:1012800011684FF0FF32E9E710B5436913B1AFF3CE
:10129000008001E0FFF7BEF9012010BD128800F1C7
:1012A000240182840022C2840122EDE711684FF0FC
:1012B000FF32E9E7007B00F0800070472DE9F04144
:1012C00016460C46054600F043F8036893F8010102
:1012D000012807D0FF2C12D8185D80B101202C7096
:1012E000BDE8F081D3F807013246214603F2071327
:1012F000C7182846BC46BDE8F041002360474FF0C0
:10130000FF30EDE7754600F0EBF8AE4605006946A4
:10131000534620F00700854618B020B5FFF76EF859
:10132000BDE820404FF000064FF000074FF00008E6
:101330004FF0000BAC46ACE8C009ACE8C009ACE823
:10134000C009ACE8C00921F007018D4670470000D4
:1013500010B500F005F8001D10BD00BF25270000E6
:1013600000487047300000202DE9F0411F46044638
:1013700003260168072A01F4006004DB08B116A502
:1013800005E016A503E008B115A500E015A521F0BC
:1013900010002060A069C01EA0610FB1401EA061B6
:1013A0002046FFF773F84FB1D4E901213846904742
:1013B000206A401C2062C01C206206E0206AFAE716
:1013C000D4E9012115F8010B9047761EF8D220468A
:1013D000FFF772F8BDE8F0814E414E006E616E007D
:1013E000494E4600696E66002DE9F0478146164673
:1013F0008AB0354878440DC88DE80D0032487844ED
:10140000801C03AC0DC884E80D0041F69B300844F5
:10141000372190FBF1F290FBF1F5A5F1800501FB7E
:1014200012041B3C02D56442012000E00020DFF8DA
:1014300098A080460027FA44AAF1BE0A0EE0E00711
:101440000AD03246684607EB470101230AEB8101C7
:1014500002F0ADF98DE8070064107F1C002CEED17E
:10146000194F7F44AE3F19E0E80715D007EB041091
:101470000DF1180A90E80E008AE80E00C068F042EC
:1014800001D1981908903246012306A903A802F059
:101490008EF903AB83E807006D10641C002DE3D1C7
:1014A0004FF0010332466946B8F1000F03A802D09D
:1014B00002F068F901E002F07AF9C9E90001C9F81F
:1014C00008200AB0BDE8F087D42C000010B504460F
:1014D000AFF300802046BDE81040FEF77ABF000061
:1014E000004870471000002030B44FF0013C50F825
:1014F000042BCCFA52F451F8043BD51A20D1FCB994
:1015000050F8042BCCFA52F451F8043BD51A17D1F9
:10151000B4B950F8042BCCFA52F451F8043BD51A64
:101520000ED16CB950F8042BCCFA52F451F8043BAC
:10153000D51A05D1002CDAD030BC4FF0000070472E
:1015400029BAB1FA81F111F01801D1F120008440DB
:10155000F2D1CA40CB4012F0FF0213F0FF0330BCBF
:10156000D01A704701491820ABBEFEE726000200E2
:101570007047000000000000FFE7FEE700000000E9
:1015800080B584B0039000F023FA02900398019094
:101590000198013048B1FFE740F20800C2F20000B4
:1015A0000178019808440190FFE7FFE700F010FA86
:1015B0000299401A0199884201D2FFE7F6E704B088
:1015C00080BD00000000000091B010900F9100203D
:1015D0000E900D900C900B908021C5F600010A91A1
:1015E0000E90FFE70E980F2800F2D581FFE70E99C5
:1015F000012088400D900F9800680D9908400C90CC
:101600000C980D99884240F0C181FFE70F9840681F
:10161000022805D0FFE70F984068122826D1FFE77F
:1016200010980E996FF0030202EA51010844006A13
:101630000B900E9800F0070081000F2000FA01F1D6
:101640000B9888430B900F9800690E9901F00701E1
:10165000890000FA01F10B9808430B900B98109940
:101660000E9B02EA530211440862FFE710980068DB
:101670000B900E984100032000FA01F10B9888436B
:101680000B900F98406800F003000E99490000FA93
:1016900001F10B9808430B900B98109908600F9874
:1016A000406801280FD0FFE70F98406802280AD051
:1016B000FFE70F984068112805D0FFE70F984068B2
:1016C00012282FD1FFE7109880680B900E984100E8
:1016D000032000FA01F10B9888430B900F98C06823
:1016E0000E99490000FA01F10B9808430B900B98F2
:1016F00010998860109840680B900E99012000FAAC
:1017000001F10B9888430B900F984068C0F30010CC
:101710000E9900FA01F10B9808430B900B98109961
:101720004860FFE71098C0680B900E9841000320B6
:1017300000FA01F10B9888430B900F9880680E997E
:10174000490000FA01F10B9808430B900B9810998F
:10175000C8600F98C079C006002840F11681FFE7E5
:10176000FFE744F2F440C5F60200016841F00201CF
:101770000160006800F0020009900998FFE70E98E8
:1017800020F0030040F20841C5F6000140580B90DC
:101790000E9800F0030081000F2000FA01F10B9871
:1017A00088430B9010980021C5F60201884203D1AE
:1017B000FFE7002008907AE0109840F20041C5F65B
:1017C0000201884203D1FFE7012007906CE01098E6
:1017D00040F60001C5F60201884203D1FFE702206E
:1017E00006905EE0109840F60041C5F6020188427E
:1017F00003D1FFE70320059050E0109841F200016B
:10180000C5F60201884203D1FFE70420049042E0BC
:10181000109841F20041C5F60201884203D1FFE76A
:101820000520039034E0109841F60001C5F602014E
:10183000884203D1FFE70620029026E0109841F687
:101840000041C5F60201884203D1FFE7072001905D
:1018500018E0109842F20001C5F60201884203D157
:10186000FFE7082000900AE0109942F20042C5F616
:1018700002020A20914208BF09200090FFE7009869
:101880000190FFE701980290FFE702980390FFE7BD
:1018900003980490FFE704980590FFE705980690E9
:1018A000FFE706980790FFE707980890FFE708987A
:1018B000C0B20E9901F00301890000FA01F10B9802
:1018C00008430B900B980E9921F0030140F2084257
:1018D000C5F6000288500A9800680B900C990B9886
:1018E00088430B900F988079C00728B1FFE70C99C7
:1018F0000B9808430B90FFE70B980A9908600A9829
:1019000040680B900C990B9888430B900F98807946
:101910008007002805D5FFE70C990B9808430B902A
:10192000FFE70B980A9948604FF0B04000680B90B1
:101930000C990B9888430B900F988079C00600286B
:1019400005D5FFE70C990B9808430B90FFE70B9820
:101950004FF0B04108600420C5F6000000680B900D
:101960000C990B9888430B900F988079800600287B
:1019700005D5FFE70C990B9808430B90FFE70B98F0
:101980000421C5F600010860FFE7FFE7FFE70E98B6
:1019900001300E9026E611B07047000000000000F4
:1019A00082B00190ADF802108DF801209DF8010081
:1019B00028B1FFE7BDF802000199088304E0BDF8F3
:1019C000020001994883FFE702B070470000000061
:1019D00040F2C400C2F2000000687047000000003E
:1019E00040F20800C2F20000027840F2C401C2F2E4
:1019F0000001086810440860704700000000000003
:101A000080B582B0032000F077F8002000F010F8D5
:101A100020B1FFE701208DF8070005E000F040F855
:101A200000208DF80700FFE79DF8070002B080BD99
:101A300080B582B0009040F20000C2F20000006861
:101A400040F20801C2F200010A784FF47A71B1FB4A
:101A5000F2F1B0FBF1F001F0A3F820B1FFE70120B3
:101A60008DF8070018E000980F280DD8FFE70099BF
:101A70004FF0FF30002200F027F8009840F20C01F0
:101A8000C2F20001086003E001208DF8070003E0C6
:101A900000208DF80700FFE79DF8070002B080BD29
:101AA00081B0FFE744F2F440C5F60200016841F05E
:101AB00002010160006800F0020000900098FFE75A
:101AC00001B070470000000080B586B0ADF8160088
:101AD0000491039201F0DCFA0290BDF91600019026
:101AE00002980499039A01F09BF90146019801F0CC
:101AF000D7FA06B080BD000080B582B00190019891
:101B000001F0F2FA02B080BD80B582B000F008FAB0
:101B100044F21841C5F60201096801F470614FF4FE
:101B200080720192019A92FAA2F20092009AB2FA9D
:101B300082F221FA02F244F2E401C0F60001895C6B
:101B400020FA01F140F20000C2F2000001600068DA
:101B500002B080BD0000000080B588B00490039101
:101B600000200290039842F20001C5F200210968AA
:101B700001F00701884216D9FFE742F20000C5F2E2
:101B80000020016821F00701039A114301600068F9
:101B900000F007000399884204D0FFE701208DF888
:101BA000170091E1FFE704980078800700280CD522
:101BB000FFE744F21841C5F60201086820F00F0063
:101BC000049AD26810430860FFE704980078C007C1
:101BD000002800F0E880FFE744F21841C5F6020152
:101BE000086820F47060049A9268104308600498B2
:101BF0004068022811D1FFE744F20040C5F6020018
:101C0000006800F400310020B0EB514F04D1FFE731
:101C100001208DF8170057E13EE004984068032842
:101C200011D1FFE744F20040C5F60200006800F061
:101C300000710020B0EB516F04D1FFE701208DF857
:101C4000170041E127E004984068012811D1FFE71F
:101C500044F20040C5F60200006800F480710020E4
:101C6000B0EB112F04D1FFE701208DF817002BE115
:101C700010E044F20040C5F60200006800F00401E4
:101C80000020B0EB910F04D1FFE701208DF8170081
:101C90001AE1FFE7FFE7FFE744F21041C5F6020152
:101CA000086820F00700049A526810430860FFF7A4
:101CB0008FFE02900498406802281AD1FFE7FFE7E0
:101CC00044F21040C5F60200006800F03800102809
:101CD0000ED0FFE7FFF77CFE0299401A41F28931EE
:101CE000884204D3FFE703208DF81700ECE0E7E714
:101CF00058E00498406803281AD1FFE7FFE744F250
:101D00001040C5F60200006800F0380018280ED018
:101D1000FFE7FFF75DFE0299401A41F289318842E0
:101D200004D3FFE703208DF81700CDE0E7E738E0A4
:101D30000498406801281AD1FFE7FFE744F21040F9
:101D4000C5F60200006800F0380008280ED0FFE752
:101D5000FFF73EFE0299401A41F28931884204D3CE
:101D6000FFE703208DF81700AEE0E7E718E0FFE794
:101D700044F21040C5F60200006810F0380F0ED093
:101D8000FFE7FFF725FE0299401A41F289318842A8
:101D900004D3FFE703208DF8170095E0E8E7FFE79D
:101DA000FFE7FFE7FFE7039842F20001C5F20021D9
:101DB000096801F00701884216D2FFE742F20000ED
:101DC000C5F20020016821F00701039A1143016068
:101DD000006800F007000399884204D0FFE7012063
:101DE0008DF8170070E0FFE704980078400700289E
:101DF0000CD5FFE744F21841C5F60201086820F04F
:101E00007000049A126910430860FFE70498007894
:101E1000000700280CD5FFE744F21C41C5F602017B
:101E2000086820F07000049A526910430860FFE7C8
:101E300004980078C00600280CD5FFE744F21C4146
:101E4000C5F60201086820F4E060049A9269104324
:101E50000860FFE704980078800600280CD5FFE7AB
:101E600044F22041C5F60201086820F07000049A8F
:101E7000D26910430860FFE700F052F844F21841BD
:101E8000C5F60201096801F470614FF4807207928F
:101E9000079A92FAA2F20692069AB2FA82F221FA0E
:101EA00002F244F2E401C0F60001895CC84040F24D
:101EB0000001C2F20001086000200190FFF7B8FDA8
:101EC00001988DF81700FFE79DF8170008B080BD56
:101ED00080B582B0FFF718FE44F21841C5F6020142
:101EE000096801F00F0101220192019A92FAA2F20F
:101EF0000092009AB2FA82F221FA02F244F2E4016C
:101F0000C0F60001895C20FA01F140F20400C2F23F
:101F100000000160006802B080BD00000000000009
:101F200080B596B001211591002014901391129064
:101F3000119010900F900E9044F21040C5F60200E0
:101F4000006800F0380001460D91182800F2678102
:101F50000D99DFE811F01900640164016401640166
:101F60006401640164013A00640164016401640174
:101F7000640164016401400064016401640164015E
:101F8000640164016401460044F20040C5F60200A9
:101F9000006800F020010020B0EB511F0ED0FFE7D9
:101FA00044F20040C5F602000068C0F3C10149F2E6
:101FB0000000C0F2D030C8400E9005E049F20000A9
:101FC000C0F2D0300E90FFE72FE140F60010C0F2D3
:101FD0003D000E9029E141F20020C0F27A000E90FF
:101FE00023E144F22840C5F60200016801F0030134
:101FF00014910068C0F30510139044F22C40C5F60C
:102000000200006800F001001290129844F234417E
:10201000C5F60201096889B2C908484301F08AFE81
:10202000109014980C9048B1FFE70C9801286AD0E2
:10203000FFE70C98022800F08D80B2E044F20040E7
:10204000C5F60200006800F020010020B0EB511F2F
:1020500031D0FFE744F20040C5F602000068C0F34B
:10206000C10149F20000C0F2D030C840119011986F
:102070001399B0FBF1F001F05DFE0B9044F230409B
:10208000C5F6020000686FF35F2001F053FE0A906E
:1020900010984FF08C4101F06BFD01460A9801F059
:1020A00005FD4FF07E5101F001FD01460B9801F056
:1020B00055FE0F9026E0139949F20000C0F2D0308F
:1020C000B0FBF1F001F036FE099044F23040C5F665
:1020D000020000686FF35F2001F02CFE089010985A
:1020E0004FF08C4101F044FD0146089801F0DEFC00
:1020F0004FF07E5101F0DAFC0146099801F02EFE06
:102100000F90FFE774E0139940F60010C0F23D0015
:10211000B0FBF1F001F00EFE079044F23040C5F63E
:10212000020000686FF35F2001F004FE0690109833
:102130004FF08C4101F01CFD0146069801F0B6FC01
:102140004FF07E5101F0B2FC0146079801F006FE07
:102150000F904DE0139941F20020C0F27A00B0FBDD
:10216000F1F001F0E7FD059044F23040C5F60200C1
:1021700000686FF35F2001F0DDFD049010984FF0D0
:102180008C4101F0F5FC0146049801F08FFC4FF002
:102190007E5101F08BFC0146059801F0DFFD0F90A8
:1021A00026E0139940F60010C0F23D00B0FBF1F0BC
:1021B00001F0C0FD039044F23040C5F60200006813
:1021C0006FF35F2001F0B6FD029010984FF08C4144
:1021D00001F0CEFC0146029801F068FC4FF07E5100
:1021E00001F064FC0146039801F0B8FD0F90FFE791
:1021F00044F23040C5F60200006881B2012000EBD5
:10220000512015900F980190159801F093FD01460B
:10221000019801F0ADFC01F06DFD0E9005E040F677
:102220000010C0F23D000E90FFE70E9816B080BD82
:1022300080B58EB002900020019002980078C0070F
:10224000002800F0BA80FFE744F21040C5F6020013
:10225000006800F03800102814D0FFE744F2104066
:10226000C5F60200006800F03800182820D1FFE70A
:1022700044F22840C5F60200006800F0030002287E
:1022800016D1FFE744F20040C5F60200006800F4F2
:1022900000310020B0EB514F09D0FFE702984068B1
:1022A00028B9FFE701208DF80F0000F072BC83E031
:1022B000FFE702984068B0F5803F09D1FFE744F29C
:1022C0000041C5F60201086840F48030086032E041
:1022D0000298406868B9FFE744F20041C5F6020180
:1022E000086820F480300860086820F480200860C6
:1022F00020E002984068B0F5A02F0DD1FFE744F22E
:102300000041C5F60201086840F4802008600868B2
:1023100040F4803008600CE044F20041C5F6020150
:10232000086820F480300860086820F48020086085
:10233000FFE7FFE7FFE7FFE702984068F0B1FFE73C
:10234000FFF746FB0190FFE744F20040C5F60200AC
:10235000006800F400310020B0EB514F0DD1FFE7D1
:10236000FFF736FB0199401A652805D3FFE70320E4
:102370008DF80F0000F00DBCE6E71CE0FFF728FB2E
:102380000190FFE744F20040C5F60200006800F447
:1023900000310020B0EB514F0CD0FFE7FFF718FBE6
:1023A0000199401A652804D3FFE703208DF80F0038
:1023B000EFE3E7E7FFE7FFE7FFE702980078800732
:1023C000002840F1DA80FFE744F21040C5F6020031
:1023D000006810F0380F13D0FFE744F21040C5F644
:1023E0000200006800F0380018285CD1FFE744F2D2
:1023F0002840C5F6020000688007002853D1FFE797
:1024000044F20040C5F60200006800F0040100201C
:10241000B0EB910F08D0FFE70298C06820B9FFE742
:1024200001208DF80F00B4E344F20041C5F602012B
:10243000086820F01900029AD26810430860FFF77C
:10244000C7FA0190FFE744F20040C5F602000068B9
:1024500000F004010020B0EB910F0CD1FFE7FFF773
:10246000B7FA0199401A032804D3FFE703208DF837
:102470000F008EE3E7E744F20441C5F60201086865
:1024800020F47C30029A12694FF47C330593059B4B
:1024900093FAA3F30493049BB3FA83F39A40104393
:1024A0000860FFE768E00298C06800283ED0FFE7B8
:1024B00044F20041C5F60201086820F01900029AB2
:1024C000D26810430860FFF783FA0190FFE744F2F7
:1024D0000040C5F60200006800F004010020B0EBE7
:1024E000910F0CD1FFE7FFF773FA0199401A032807
:1024F00004D3FFE703208DF80F004AE3E7E744F237
:102500000441C5F60201086820F47C30029A126981
:102510004FF47C330793079B93FAA3F30693069B30
:10252000B3FA83F39A401043086024E044F2004178
:10253000C5F60201086820F001000860FFF748FABC
:102540000190FFE744F20040C5F60200006800F089
:1025500004010020B0EB910F0CD0FFE7FFF738FA31
:102560000199401A032804D3FFE703208DF80F00D8
:102570000FE3E7E7FFE7FFE7FFE702980078C00611
:10258000002840F1B280FFE744F21040C5F6020097
:10259000006800F03800082814D0FFE744F210402B
:1025A000C5F60200006800F03800182837D1FFE7B0
:1025B00044F22840C5F60200006800F0030001283C
:1025C0002DD1FFE744F20040C5F60200006800F498
:1025D00080710020B0EB112F09D0FFE70298C0698D
:1025E000802804D0FFE701208DF80F00D1E244F2EB
:1025F0000441C5F60201086820F0F840029A126A08
:102600004FF0F8430993099B93FAA3F30893089BAF
:10261000B3FA83F39A4010430860FFE764E002983E
:10262000C069D8B3FFE744F20041C5F6020108686B
:1026300040F080000860FFF7CBF90190FFE744F21B
:102640000040C5F60200006800F480710020B0EB85
:10265000112F0CD1FFE7FFF7BBF90199401A0328AE
:1026600004D3FFE703208DF80F0092E2E7E744F27E
:102670000441C5F60201086820F0F840029A126A87
:102680004FF0F8430B930B9B93FAA3F30A930A9B27
:10269000B3FA83F39A401043086024E044F2004107
:1026A000C5F60201086820F080000860FFF790F985
:1026B0000190FFE744F20040C5F60200006800F414
:1026C00080710020B0EB112F0CD0FFE7FFF780F9ED
:1026D0000199401A032804D3FFE703208DF80F0067
:1026E00057E2E7E7FFE7FFE7FFE702980078000718
:1026F00000284FD5FFE70298406928B3FFE744F26E
:102700007441C5F60201086840F001000860FFF757
:102710005FF90190FFE744F27440C5F602000068DB
:1027200000F002010020B0EB510F0CD1FFE7FFF7E2
:102730004FF90199401A032804D3FFE703208DF8CD
:102740000F0026E2E7E724E044F27441C5F60201F7
:10275000086820F001000860FFF73AF90190FFE7F0
:1027600044F27440C5F60200006800F00201002047
:10277000B0EB510F0CD0FFE7FFF72AF90199401A8F
:10278000032804D3FFE703208DF80F0001E2E7E7F9
:10279000FFE7FFE702980078800600284FD5FFE7A3
:1027A0000298806928B3FFE744F20041C5F60201B0
:1027B000086840F480500860FFF70AF90190FFE7CD
:1027C00044F20040C5F60200006800F40051002009
:1027D000B0EB513F0CD1FFE7FFF7FAF80199401A2F
:1027E000032804D3FFE703208DF80F00D1E1E7E7CA
:1027F00024E044F20041C5F60201086820F480504C
:102800000860FFF7E5F80190FFE744F20040C5F6E5
:102810000200006800F400510020B0EB513F0CD0E2
:10282000FFE7FFF7D5F80199401A032804D3FFE723
:1028300003208DF80F00ACE1E7E7FFE7FFE7029820
:1028400000784007002840F1A780FFE744F6000128
:10285000C5F60201086840F480700860FFF7B8F818
:102860000190FFE744F60000C5F602000068C005CD
:1028700000280CD4FFE7FFF7ABF80199401A652850
:1028800004D3FFE703208DF80F0082E1EAE7FFE7BA
:1028900002988068012809D1FFE744F27041C5F62B
:1028A0000201086840F00100086031E00298806889
:1028B00068B9FFE744F27041C5F60201086820F0EC
:1028C00001000860086820F0040008601FE002981A
:1028D000806805280DD1FFE744F27041C5F602017A
:1028E000086840F004000860086840F001000860D3
:1028F0000CE044F27041C5F60201086820F00100C6
:102900000860086820F004000860FFE7FFE7FFE7C1
:10291000FFE702988068F8B1FFE7FFF759F80190E8
:10292000FFE744F27040C5F60200006800F00201C3
:102930000020B0EB510F0ED1FFE7FFF749F80199E6
:10294000401A41F28931884204D3FFE703208DF811
:102950000F001EE1E5E71EE0FFF73AF80190FFE700
:1029600044F27040C5F60200006800F00201002049
:10297000B0EB510F0ED0FFE7FFF72AF80199401A8C
:1029800041F28931884204D3FFE703208DF80F001C
:10299000FFE0E5E7FFE7FFE70298406A002800F064
:1029A000F480FFE744F21040C5F60200006800F032
:1029B0003800182800F0E480FFE70298406A0228F7
:1029C00040F0B880FFE744F20041C5F60201086814
:1029D00020F080700860FEF7FBFF0190FFE744F2F3
:1029E0000040C5F60200006800F000710020B0EB66
:1029F000516F0CD0FFE7FEF7EBFF0199401A032857
:102A000004D3FFE703208DF80F00C2E0E7E7FFE7FC
:102A100044F22841C5F60201086840F2F3329043BF
:102A2000029B9A6ADB6A42EA031210430860029929
:102A3000086BD1F834C08B6BCA6B01386FF35F2021
:102A40004FF60061CFF6FF7101EB4C2189B20844CB
:102A50000021CFF6FF7101EB034101F4FE010844B0
:102A60004FF07F4101EB026101F0FE41084444F266
:102A70003041C5F602010860FFE744F23441C5F673
:102A8000020108684FF6F8739843029A926C0D930E
:102A90000D9B93FAA3F30C930C9BB3FA83F39A4028
:102AA0001043086044F22C41C5F602010091086809
:102AB00020F00C00029A126C10430860086820F0A5
:102AC0000200029A526C10430860086840F480309B
:102AD0000860086840F400300860086840F480200E
:102AE0000860086840F00100086044F20041C5F643
:102AF0000201086840F080700860FEF769FF0190ED
:102B0000FFE744F20040C5F60200006800F00071E3
:102B10000020B0EB516F0CD1FFE7FEF759FF019990
:102B2000401A032804D3FFE703208DF80F0030E09C
:102B3000E7E724E044F20041C5F60201086820F00E
:102B400080700860FEF744FF0190FFE744F2004008
:102B5000C5F60200006800F000710020B0EB516F74
:102B60000CD0FFE7FEF734FF0199401A032804D385
:102B7000FFE703208DF80F000BE0E7E7FFE703E036
:102B800001208DF80F0004E0FFE700208DF80F0012
:102B9000FFE79DF80F000EB080BD000000000000B0
:102BA00080B582B00190019800F072F902B080BD4A
:102BB00081B0009040F68060CEF200000068C0074F
:102BC000A8B1FFE740F60060CEF200000068C00741
:102BD00068B1FFE7FFE74FF06040006810B9FFE71A
:102BE00000BFF8E700984FF060410870FFE70098D9
:102BF00001B070470000000080B598B00020179029
:102C00001690159014901390FFE744F2E040C5F63B
:102C10000200016841F004010160006800F0040056
:102C200012901298FFE7FFE744F2E040C5F6020079
:102C3000016841F080010160006800F0800011909F
:102C40001198FFE7FFE744F2E040C5F60200016893
:102C500041F001010160006800F00100109010983F
:102C6000FFE7FFE744F2E040C5F60200016841F0EB
:102C700002010160006800F002000F900F98FFE76A
:102C8000FFE744F2E040C5F60200016841F00801A8
:102C90000160006800F008000E900E98FFE7FFE763
:102CA00044F2E040C5F60200016841F040010160D5
:102CB000006800F040000D900D98FFE740F20040E2
:102CC000C5F6020004904FF481410391002209925D
:102CD000FEF766FE099A41F60000C5F602000B9069
:102CE00040210591FEF75CFE09984FF400510291D6
:102CF00013910021C1F211111491159040F60000BA
:102D0000C5F60200019013A90C91FEF75DFC019835
:102D1000099A0C9932231393022308931493159262
:102D200016920B220A921792FEF74EFC089B099A04
:102D30000A980C994FF0860CCDF84CC0149315925C
:102D4000169217900020C5F602000790FEF73CFC93
:102D50000498DDF820C0099B0A9A0C99DDF808E078
:102D6000CDF84CE0CDF850C0159316931792FEF7AE
:102D70002BFC039B0498099A0C9913930123069347
:102D8000149315921692FEF71FFC089A09980C9955
:102D90004FF44073139314921590169007201790D8
:102DA00040F60040C5F60200FEF70EFCDDF814C048
:102DB000069B099A0B980C99CDF84CC01493159268
:102DC0001692FEF701FC099A0B980C998023139335
:102DD00014921592FEF7F8FB0798089B099A0C9934
:102DE0004FF4E85CCDF84CC01493159216920A2269
:102DF0001792FEF7E9FBDDF820C0099B0A9A0B98B1
:102E00000C994FF4205ECDF84CE0CDF850C01593EE
:102E100016931792FEF7D8FB18B080BD0000000093
:102E200088B0079006910592079800F0070004907B
:102E30000498C0F10700052803D3FFE704200190A0
:102E400004E00498C0F107000190FFE701980390A7
:102E500004980430062803D8FFE70020009003E020
:102E6000049803380090FFE70098029006980399B1
:102E7000012202FA01F101390840029B98400599AC
:102E80009A40013A1140084308B070470000000022
:102E900080B582B0009000980138B0F1807F03D3F4
:102EA000FFE70120019019E0009801384EF214016B
:102EB000CEF2000108604FF0FF300F2100F0F0F873
:102EC0004EF21801CEF20001002008604EF210020E
:102ED000CEF20002072111600190FFE7019802B0D5
:102EE00080BD00000000000080B5FEF779FD80BDC8
:102EF00080B59EB00BA84C21FDF79EFA00200190F2
:102F00000A9009900890079006900590049003900D
:102F100044F60C01C5F60201086820F004000860C0
:102F2000FFE70020029044F61800C5F60200016891
:102F300041F440410160006800F440400290029872
:102F4000FFE7FFE744F61800C5F60200006800F44A
:102F50000050B0F5005F01D0FFE7F3E702210B91CD
:102F600001200E9020200F90149100201590042233
:102F7000169232231793189119921A910C211B91D2
:102F80001C901D900BA8FFF753F918B1FFE7FEF74F
:102F9000F3FAFFE73F200390032004900020059000
:102FA000082006904020079008904FF48061099116
:102FB0000A9003A80221FEF7CFFD18B1FFE7FEF744
:102FC000DBFAFFE71EB080BD44F20042C5F6020204
:102FD000106840F00100106044F21041C5F6020193
:102FE0000020086011684EF67F53CEF6F623194094
:102FF000116044F21841C5F60201086044F21C4118
:10300000C5F60201086044F22041C5F602010860DD
:1030100044F22841C5F60201086044F22C41C5F68D
:103020000201086044F23041C5F60201086044F232
:103030003441C5F60201086044F23841C5F6020188
:10304000086044F23C41C5F60201086044F2404188
:10305000C5F60201086044F24441C5F60201086069
:10306000116821F48021116044F26041C5F602012B
:10307000086048F20811C5F20011012008604EF600
:103080000851CEF200014FF0006008607047000068
:103090004EF60C50CEF200000068C0F302207047DC
:1030A00082B0ADF806000091BDF9060000280AD4F0
:1030B000FFE700980001BDF906104EF20042CEF283
:1030C000000288540BE000980001BDF8061001F0E2
:1030D0000F014EF61452CEF200028854FFE702B000
:1030E000704700000000000083B00290029800F0DA
:1030F000070000904EF60C51CEF2000108680190D6
:1031000001984FF6FF02104001900198009A40EAA2
:1031100002200022C0F2FA52104301900198086088
:1031200003B070470000000080B582B001900091AC
:103130000198FFF73DFD02B080BD000000000000D7
:1031400080B58CB0002002900B90FEF759FCFFF781
:10315000CFFEFFF751FD44F23410C0F60000FDF73A
:103160005FF90A200190FEF70BFAFEF7B1FE40006E
:103170004DF68361C4F21B31A0FB0110800C089056
:10318000089944F24210C0F60000FDF749F9019891
:10319000FEF7F6F90620069041F26300C0F2F8103F
:1031A0000590FEF715FC014602980A910390FFE78F
:1031B000039841F26201C0F2F811884205D8FFE796
:1031C000FFE7039801300390F2E7FEF701FC099056
:1031D00009980A99401A0790079944F21A10C0F604
:1031E0000000FDF71DF9FEF7F3FB0A9000200390A5
:1031F000FFE7039841F26201C0F2F811884209D852
:10320000FFE70699049808440490FFE7039801300B
:103210000390EEE7FEF7DCFB099009980A99401A43
:103220000799411A44F2F400C0F60000FDF7F8F8DF
:10323000FEF7CEFB0A9000200390FFE7039841F2CF
:103240006201C0F2F811884209D8FFE70599049895
:1032500008440490FFE7039801300390EEE7FEF77F
:10326000B7FB099009980A99401A0799411A44F244
:103270000710C0F60000FDF7D3F844F26210C0F664
:103280000000FDF7CDF8FFE7FEE75FEA400C08BF5E
:1032900091F0000F4FEA8C234FEAC12243EA5151CB
:1032A0004FEA1C5018BF00F5F0404FEA300018BF3D
:1032B00041F000415FEA6C5C00F02980BCF1FF3F07
:1032C00008BF40F080407047130C06BF12044FF057
:1032D000100C4FF0000C130E04BF12020CF1080C7E
:1032E000130F04BF12010CF1040C930F04BF9200E2
:1032F0000CF1020CD30F04BF52000CF1010C11466B
:103300004FF00002A0F11F00A0EB0C00704711F07D
:10331000004F08BF704731F000413FF4D5AF0B0CB0
:1033200006BF09044FF0100C4FF0000C0B0E04BF49
:1033300009020CF1080C0B0F04BF09010CF1040C7D
:103340008B0F04BF89000CF1020CCB0F04BF4900A6
:103350000CF1010CCCF1200322FA03F341EA030142
:1033600002FA0CF2A0EB0C0000F101007047000023
:1033700023F07F4720F07F4C80EA030000F00040FC
:10338000ACEB070303F57C5303F1FF032DE9804900
:1033900009B44FEA144324EA03484FEA154B25EADF
:1033A0000B4E0FF2042606EB13273E7803FB06674D
:1033B000C7F5000707FB06F64FEAD64606F10206F8
:1033C0004FEA543707FB066CCCF1005C4FEA1C4710
:1033D0002CEA074C0CFB06F507FB06F404EB15463C
:1033E0004FEA961649085FEA320234BF00204FF0D8
:1033F00000404FEAD13706FB07FC4FEA1C4C0CFBA0
:103400000BF7D21B03FB0CF761EB07010CFB0EF76C
:10341000B0EB074072EB17420CFB08F734BFA2EB8E
:103420000742B2EB074261EB17414FEA0C444FEA07
:10343000910706FB07FC4FEA1C4C0CFB0BF7B0EBAB
:10344000C74072EB573203FB0CF734BFA2EBC74205
:10345000B2EBC74261EB57310CFB0EF7B0EBC70084
:1034600072EB57720CFB08F734BFA2EBC702B2EB4A
:10347000C70261EB57714FEA816141EA92114FEA4D
:10348000826242EA90124FEA806004EBCC04039F10
:103490004FEAD13706FB07FC4FEA1C4C0CFB0BF73D
:1034A000D21B03FB0CF761EB07010CFB0EF7B0EB33
:1034B000074072EB17420CFB08F734BFA2EB074240
:1034C000B2EB074261EB17414FEA8C5504EB9C24A9
:1034D0004FEA910706FB07FC4FEA1C4C0CFB0BF76D
:1034E000B0EBC74072EB573203FB0CF734BFA2EBD3
:1034F000C742B2EBC74261EB57310CFB0EF7B0EBA2
:10350000C70072EB57720CFB08F734BFA2EBC7027F
:10351000B2EBC70261EB57714FEA816141EA921148
:103520004FEA826242EA90124FEA806015EB4C2526
:1035300044F100044FEAD13706FB07FC4FEA1C4C6C
:103540000CFB0BF7D21B03FB0CF761EB07010CFB29
:103550000EF7B0EB074072EB17420CFB08F734BFD5
:10356000A2EB0742B2EB074261EB17414FEA813110
:1035700041EA92414FEA823242EA90424FEA803079
:103580004FEA0C7615EB1C1544F1000448EA03439E
:103590004EEA0B484FF0000EB2EB080C71EB03073C
:1035A00024BF624639464EEB0E0E4FF0000B00185A
:1035B000524149414BEB0B0BB2EB080C71EB03078B
:1035C0007BF1000B24BF624639464EEB0E0E4FF0E6
:1035D000000B0018524149414BEB0B0BB2EB080CAE
:1035E00071EB03077BF1000B24BF624639464EEBBB
:1035F0000E0E51EA020718BF46F0010616EB0E76D2
:1036000055F1000254F1000103D5BDE88901BDE880
:103610000088BDE88901BDE80048B619524141EB78
:103620000101A3F10103704780807F7E7D7C7B7A5E
:103630007978777676757473727171706F6E6E6D5E
:103640006C6C6B6A6A696868676666656464636304
:1036500062616160605F5F5E5E5D5D5C5C5B5B5A8A
:103660005A595958585757565655555554545353F7
:1036700052525251515050504F4F4F4E4E4D4D4D52
:103680004C4C4C4B4B4B4A4A4A494949484848479D
:1036900047474746464645454544444444434343DB
:1036A00043424242424141419C46002B30D4770084
:1036B0002BD04FEA37071CB503B44FF010004FF082
:1036C0001001BAF1000F06D0BCF1000FDCBF40F0D2
:1036D000080040F008014FF000000FBCBDE81040AA
:1036E0000BF1010BBBF1010F08BF5FEA170722BF07
:1036F00012F1010211F101014FF0004143F1000309
:1037000000F0004043EA00007047F9D35708D0E7C3
:1037100046EA06464FEA164613F1400F1FDD13F145
:10372000200FDFBF16430A46002120335B42BED084
:10373000C3F1200746EA06464FEA164602FA07F7A3
:1037400046EA070622FA03F2C3F1200701FA07F757
:1037500042EA070221FA03F14FF00003A7E746EA25
:10376000020646EA06464FEA164646EA0106BCBF8E
:1037700046EA0646360C4FF000034FF000024FF0C9
:10378000000194E72DE9804C70B49A46934691E885
:10379000380007C831EA400C48BF34EA430C03D56F
:1037A000FFF7E6FDFFF780FFF0BCBDE8008C2DE9D8
:1037B000804C70B49A46934691E8380007C810F0E0
:1037C000804F08BF13F0804F03D100F005F8FFF7DA
:1037D0006BFFF0BCBDE8008C20F07F4723F07F4CEE
:1037E00080EA030000F0004007EB0C03A3F57C53D4
:1037F000A3F1FE0392F0000F00F0B38095F0000FEC
:1038000000F077802DE901494FEA114021EA004894
:103810004FEA144624EA064700FB06FC08FB06F6BE
:1038200007FB08F818EB06484CEB164C00FB07F7B3
:1038300018EB07484CEB17404FEA124B22EA0B4EAD
:103840004FEA154625EA06470BFB06FC0EFB06F67B
:1038500007FB0EFE1EEB064E4CEB164C0BFB07F760
:103860001EEB074E4CEB174B18EB0B0840F100001A
:1038700018EB0E0B58EB000840F100008F1A4FF0C8
:1038800000014FF000063CBFC943661B14BFB5EBF7
:10389000040C00213CBFC943F61B4FEA174427EA3A
:1038A00004454FEA1C472CEA074C04FB076205FB62
:1038B00007F70CFB05F616EB074642EB174204FB35
:1038C0000CFC16EB0C4642EB1C421BEB060658EBBD
:1038D000020241414EEA8E0E46EA9E0601D5BDE83F
:1038E0000189B619524141EB0101A3F10103BDE881
:1038F00001894FEA144524EA05464FEA114721EAB7
:10390000074C05FB07F406FB07F70CFB06F111EB70
:10391000074144EB174405FB0CFC11EB0C4144EB55
:103920001C444FEA124722EA074C05FB07F206FB4C
:1039300007F70CFB06F616EB074642EB174205FBB2
:103940000CFC16EB0C4642EB1C456A1854F10001C6
:1039500048BF7047B619524141EB0101A3F1010381
:10396000704795F0000F37D04FEA114221EA024626
:103970004FEA144724EA074C02FB07F106FB07F75E
:103980000CFB06F414EB074441EB174102FB0CFC63
:1039900014EB0C4441EB1C414FEA154725EA074C58
:1039A00002FB07F506FB07F70CFB06F616EB0746CE
:1039B00045EB174502FB0CFC16EB0C4645EB1C4295
:1039C000121951F1000148BF7047B619524141EB3D
:1039D0000101A3F1010370474FEA144524EA0546AB
:1039E0004FEA114721EA074C05FB07F106FB07F7F1
:1039F0000CFB06F212EB074241EB174105FB0CFCF6
:103A000012EB0C4251EB1C414FF0000648BF7047CF
:103A1000921841EB0101A3F101037047490050EAFC
:103A2000C12018BF04204A0D18BF40F0010040F229
:103A3000FF72B2EB515F08BF40F00200012808BFDF
:103A40000520704730380A2801D201207047002035
:103A50007047000010B500290AD00878002807D068
:103A600005487844FDF740FD002801D0002010BD36
:103A70000248784410BD00003E07000036070000F1
:103A800010B500290AD00878002807D005487844E6
:103A9000FDF72AFD002801D0002010BD024878441F
:103AA00010BD00002E0700002607000090EA010F5D
:103AB00048BF81F0004100F12482421A3CBF801AC5
:103AC00089184FEAD052A2EBD1534FF07F4C1CEA39
:103AD000410F18BF9CEA026F00F03B804FF0004C92
:103AE0004CEA00204CEA012121FA03FC10EB0C0CFB
:103AF0001ED202F1FF325FEA1C2040EBC25038BFF9
:103B000070471CF07F0F4FEA400C18BFBCF17F4F8D
:103B100038BF7047C3F12003994008BF20F001006F
:103B2000BCF17F4F38BF7047A0F1C04000F0DDB955
:103B30004FEA3C00000A40EBC25028BF1CF0FF0FC8
:103B40004FEA400CE6D018BFBCF17F4F38BF70473A
:103B5000EAE79CEA026F05D010EA5C0F08BF00F0AC
:103B60000040704710B500F07AF900BF64FBBE3E1C
:103B70004FF47F0C1CEAD0121EBF1CEAD11392EA4C
:103B80000C0F93EA0C0F00F0858090EA010F48BFFC
:103B900042F4807240F4000C41F400002CF07F41AC
:103BA00020F07F4000B5A2EB030281420FF2081C17
:103BB000ACEB504E9EF800E0C0F100004FEA4E0E14
:103BC00000FB0EFC38BF49004FEA2C1C0CFB0EF327
:103BD0004FEACE1E0EEB635E4FEA112C0EFB0CFC7F
:103BE0004FEAC1214FEA1C5300FB031102F5FA0210
:103BF0004FEA112C0EFB0CFC4FEA01314FEADC4C72
:103C000000FB0C1142EB2242C14228BF09184CEBC9
:103C100003335DF804EB10EB410143EBC250B2F506
:103C20007C0F38BF704729D512F0F00F1CBF00F190
:103C3000C04000F000407047008182838485868701
:103C400088898B8C8D8E8F919293959697999A9C5B
:103C50009D9FA0A2A3A5A7A8AAACAEB0B2B3B5B7CA
:103C6000B9BCBEC0C2C5C7C9CCCED1D4D7D9DCDFA0
:103C7000E2E6E9ECF0F3F7FAFE0000004FEA400C50
:103C80000CF1807CBCF17E4F28BF7047B0F1C04082
:103C900000F02BB90CEAD11390EA010F48BF42F4AF
:103CA0008072624538BF634507D213F47F0F16D088
:103CB00080EA010000F00040704710B500F0CFF836
:103CC000097EFC3E00F005B880EA010000F00040EB
:103CD000704780EA010000F0004000F006B912F4DD
:103CE0007F0F04BF0248704780EA010000F0FDB872
:103CF0000000C07FC10DD1F19E0206DB4FEA002318
:103D000043F0004323FA02F07047004207D54FEA20
:103D10004001B1F1FE4F02D24FF00000704710B5E4
:103D200000F09DF849922480002070476FEA20003F
:103D300070470000B0FA80F310FA03F2C3F19D035C
:103D40000AD0D90501EB1220530638BF704700F1A5
:103D5000010008BF20F00100704700004FF47F0C05
:103D60001CEAD0121EBF1CEAD11392EA0C0F93EA90
:103D70000C0F00F0478090EA010F48BF42F48072B8
:103D80004FF0004C4CEA00204CEA012102EB030208
:103D9000A0FB0113A2F50002002918BF43F00103A4
:103DA0005B0028BF4FEA330342EB22425FEA132C49
:103DB0004CEBC2502EBFBCEB436FB2F57C0F70478B
:103DC0004FEA036CBCF1004F08BF20F00100B2F5D0
:103DD0007C0F38BF70470BD582F0FF0212F5803F91
:103DE000C8BF704700F1C040D8BF00F00040704726
:103DF00000F5000C5FEA4C0C48BF7047B0F1C040C2
:103E000000F073B80CEAD11390EA010F48BF42F4F6
:103E10008072624538BF634504D280EA010000F039
:103E20000040704710B500F01AF800BF8900013E4D
:103E300000F007B800F009B85FEA410C5FEA1C6CBB
:103E400008D080EA010000F050B85FEA400C5FEA59
:103E50001C6CF6D14FF00040A0F5800070470EF1C9
:103E6000020E2EF0030E5EF8044B244204D44FEAF7
:103E70004102B2F17F4F11D84FEA4003B3F17F4FB7
:103E80000CD80ED14FEAD07C0CEB4C0C0CF1020C90
:103E9000B2F17F4F08BF4CEBD17C04E04FF0080C2F
:103EA00001E04FEAD17C0CEB4C0324FA03F404F05C
:103EB0000704B4F1040C06D20EEB840CBDE81040EC
:103EC0004CF0010C6047DFE80CF0070802024FF0ED
:103ED0000040A0F5800010BD0846420018BFD2F196
:103EE000807288BF00F0004010BDFF2141EAD05031
:103EF000C005704790EA010F48BF81F000413FF5CF
:103F0000DCAD421A04D882F00042A0EB020011445A
:103F10004FEAD052A2EBD1534FF07F4C1CEA410F35
:103F200018BF9CEA026F4AD04FF0004C4CEA0020C8
:103F30004CEA012121FA03FCB0EB0C0C0FD412F077
:103F4000FE0F36D05FEA4C001DD5001240EBC25088
:103F500038BF70471CF03F0F18BF70470BE05FEA97
:103F60001C20A2F1010240EBC25038BF70471CF088
:103F70007F0F18BF7047C3F12003994014BF401E44
:103F800020F0010070474FEA1223800808BF7047F5
:103F9000B0FA80FCA2EB0C02CCF1280C60FA0CF019
:103FA00093EA122F04BF00EBC25070474FEAC37070
:103FB0007047130A5FEADC1008BF7047F6E79CEA17
:103FC000026F04D010EA5C0F08BF0020704710B5E4
:103FD000FFF745FF40DFF63E81F000407047FCF7F9
:103FE00071BEFCF7A5BF000000000000000000004B
:103FF000303132333435363738394142434445461F
:104000004030580030313233343536373839616218
:10401000636465664030780004000008000000001A
:104020000000000200010000103031323334353618
:1040300037383961626364656678700030313233D5
:1040400034353637383941424344454658500000EC
:1040500002400000000000A0000000000540000039
:10406000000000C8000000000C4000000000409C60
:1040700000000000194000000020BCBE000000004D
:1040800034400000BFC91B8E00000004B540000092
:10409000504BCFD06607E2CF010000006C4100001A
:1040A0003E8251AADFEEA73401000000D942000091
:1040B000DCB5A0E23A301F97FFFFFFFFB4450000D8
:1040C000FD25A0C8E9A3C14FFFFFFFFFFF3F000090
:1040D0000000008000000000FF3F000000000080A2
:1040E00000000000000000000102030401020304BC
:1040F00006070809616464696E67206331203D200A
:104100002564206D730A00616464696E6720633200
:10411000203D202564206D730A004C6F6F70207461
:10412000696D6520697473656C66203D2025642087
:104130006D730A00537461727465642E2E2E0A0A20
:104140000D00457865637574696F6E2066726571E0
:1041500075656E6379203D202564204D487A0A0AF2
:104160000D000A0D546865207465737473206172C4
:104170006520636F6D706C657465642E0A0D0000B8
:10418000D04200080000002010000000D402000807
:10419000E042000810000020B8080000F00200080B
:1041A0001C00000043000000F8FFFFFF0C000000AF
:1041B0000E0000000F0000002E00000010010000A3
:1041C00043000000F8FFFFFF0040404040404040F7
:1041D00040404141414141404040404040404040DA
:1041E000404040404040404040050202020202027E
:1041F00002020202020202020220202020202020CD
:1042000020202002020202020202909090909090E0
:10421000101010101010101010101010101010109E
:104220001010101002020202020288888888888812
:1042300008080808080808080808080808080808FE
:104240000808080802020202400000000000000006
:10425000000000000000000000000000000000005E
:10426000000000000000000000000000000000004E
:10427000000000000000000000000000000000003E
:10428000000000000000000000000000000000002E
:10429000000000000000000000000000000000001E
:1042A000000000000000000000000000000000000E
:1042B00000000000000000000000000000000000FE
:1042C00000000000000000000000000000000000EE
:1042D0000090D0030090D003010000001000000007
:040000050800029954
:00000001FF
