:020000040800F2
:1000000000180024AD0200086125000891220008B4
:100010005925000861080008512F00080000000061
:100020000000000000000000000000009929000806
:100030006908000800000000A1270008F92900084D
:10004000C7020008C7020008C7020008C70200086C
:10005000C7020008C7020008C7020008C70200085C
:10006000C7020008C7020008C7020008C70200084C
:10007000C7020008C7020008C7020008C70200083C
:10008000C7020008C7020008C7020008C70200082C
:10009000C7020008C7020008C7020008C70200081C
:1000A000C7020008C7020008C7020008C70200080C
:1000B000C7020008C7020008C7020008C7020008FC
:1000C000C7020008C7020008C7020008C7020008EC
:1000D000C7020008C7020008C7020008C7020008DC
:1000E000C7020008C702000800000000C70200089D
:1000F000C7020008C7020008C7020008C7020008BC
:10010000C7020008C7020008C7020008C7020008AB
:10011000C7020008C7020008C7020008C70200089B
:10012000C7020008C7020008C7020008C70200088B
:10013000C7020008C7020008C7020008C70200087B
:1001400000000000000000000000000000000000AF
:10015000C7020008C7020008C7020008C70200085B
:10016000C7020008C7020008C7020008C70200084B
:10017000C7020008C7020008C7020008000000000C
:10018000C7020008C7020008C7020008C70200082B
:10019000C7020008C7020008C7020008C70200081B
:1001A000C7020008C7020008C7020008C70200080B
:1001B000C7020008C7020008C7020008C7020008FB
:1001C000C7020008C7020008C7020008C7020008EB
:1001D000C7020008C7020008C7020008C7020008DB
:1001E000C7020008C7020008C7020008C7020008CB
:1001F000C7020008C7020008C7020008C7020008BB
:10020000C7020008C7020008C7020008C7020008AA
:10021000C7020008C7020008C7020008C70200089A
:10022000C7020008C7020008C7020008000000005B
:10023000C7020008C702000800000000C70200084B
:10024000C7020008C7020008C7020008C70200086A
:10025000C7020008C7020008C7020008C70200085A
:10026000C7020008C7020008C7020008C70200084A
:10027000C7020008C7020008C7020008000000000B
:10028000C7020008C7020008C702000800000000FB
:1002900000000000C7020008DFF80CD000F040FAB0
:1002A00000480047B9490008001800240648804764
:1002B00006480047FEE7FEE7FEE7FEE7FEE7FEE74B
:1002C000FEE7FEE7FEE7FEE7E12D000899020008E1
:1002D000D2B201E000F8012B491EFBD27047002288
:1002E000F6E710B513460A4604461946FFF7F0FF35
:1002F000204610BD10B5002200E0521C835C8C5CCF
:10030000A34201D1002BF8D1D8B2E1B2401A10BDFE
:10031000034611F8012B00F8012B002AF9D11846E9
:10032000704730B50B46014600202022012409E029
:1003300021FA02F59D4205D303FA02F5491B04FA9E
:1003400002F52844151EA2F10102F1DC30BD2DE9B1
:10035000F05F0546002092469B4688460646814649
:1003600040241BE0284641464746224600F0F9F962
:1003700053465A46C01A914110D311461846224698
:1003800000F0E0F92D1A67EB01084F4622460120E4
:10039000002100F0D7F917EB00094E41201EA4F10F
:1003A0000104DFDC484631462A464346BDE8F09F5B
:1003B0002DE9FE4F804681EA0300C00F0C460090F5
:1003C00021F0004123F00045B8EB0200A94105D21D
:1003D0004046214690461C460B46024623F000400C
:1003E000104347D0270DC7F30A00C3F30A51029008
:1003F000401A019040286BDAC3F3130040F4801BCD
:100400000098924620B10023D2EB030A63EB0B0B5A
:1004100001985946C0F14002504600F093F9064653
:100420000D4650465946019A00F0ABF910EB080012
:100430006141002487EA115284EAE7731A4340D0ED
:10044000009A62B3019A012A4FEA075215DC001B99
:1004500061EB02014FF0004202EA0752CDE900428F
:10046000001C41F5801132462B4600F0ABF903B079
:10047000BDE8F08F40462146F9E7001B61EB020121
:10048000001C41F5801300185B412018A2F50017ED
:1004900047EB030140EAD570B6196D4111E06D08D4
:1004A0004FEA360645EAC0754FEA0752001B61EB7A
:1004B0000201001C41F5801149084FEA3000001983
:1004C000514132462B4603B0BDE8F04F00F06BB906
:1004D0000098012240000023D0EB020263EBE0739E
:1004E000009821464FEAE074B8EB000061EB04018C
:1004F000E9E783F000435BE781F0004158E72DE92D
:10050000FE4F81EA030404F0004421F0004100940E
:100510004FF0000B23F0004350EA01045ED052EA92
:1005200003045BD0C3F30A54C1F30A552C44A4F26C
:10053000F3340194A0FB0254C1F3130141F4801180
:10054000C3F3130343F4801301FB024400FB034E87
:10055000840A970A44EA815447EA8357A4FB076850
:1005600002958D0A05FB07854FEA932C04FB0C547A
:100570002705029D4FEA065847EA1637B5EB0805EE
:100580006EEB070C870E920E47EA811742EA831240
:10059000A7FB0201B6EB0B0164EB00042B0D43EA51
:1005A0000C335E1844EB1C50DA465146E7FB02015F
:1005B000C5F313044FEA0B3343EA14534FEA0432F2
:1005C000019C43EA0603A4F10C040294009CCDE9CB
:1005D00000B400F0F7F803B0BDE8F08F002001464A
:1005E000F9E72DE9F04D81EA030404F0004B21F016
:1005F000004514464FF0000A23F0004150EA05027E
:1006000020D054EA01021DD0C5F30A570246C5F3B3
:100610001303C1F31300C1F30A5640F4801543F4E9
:100620008013A7EB0608101BD64608F2FD3873EBC3
:10063000050002D308F1010801E092185B41B8F10E
:10064000000F03DA00200146BDE8F08D00204FF4D2
:100650008011064684460EE0171B73EB050705D391
:10066000121B63EB050306434CEA010C49084FEAF1
:10067000300092185B4150EA0107EDD152EA0300C5
:1006800012D082EA040083EA0501084305D0101B5A
:10069000AB4106D20122002306E000224FF00043C6
:1006A00002E06FF0010253101AEB06004CEB085108
:1006B00010EB0A0041EB0B01BDE8F04D00F073B800
:1006C000C1F30A52C1F3130140F2FF3341F4801128
:1006D0009A4202DA00200146704740F233439A42C0
:1006E000A2F2334202DC524200F03BB800F02AB8DA
:1006F00030B5041E71F1000404DB4FF000444042A9
:1007000064EB0101141E73F1000405DB1C464FF07D
:100710000043524263EB0403994208BF904230BD4C
:10072000064C074D06E0E06840F0010394E807003E
:1007300098471034AC42F6D3FFF7B2FDA877000813
:10074000C8770008202A04DB203A00FA02F10020D2
:1007500070479140C2F1200320FA03F319439040FF
:100760007047202A04DB203A21FA02F0002170476A
:1007700021FA02F3D040C2F1200291400843194609
:100780007047202A06DBCB17203A41FA02F043EAF1
:10079000E07306E041FA02F3D040C2F1200291403A
:1007A00008431946704710B5141E73F1000408DAA7
:1007B000401C41F1000192185B411A4301D120F025
:1007C000010010BD2DE9F04D92469B4611B1B1FAE2
:1007D00081F202E0B0FA80F220329046FFF7B2FFD9
:1007E00004460F4640EA0A0041EA0B0153465A46C6
:1007F000084313D0114653EA010019D0C8F1400252
:100800005046FFF7AEFF05460E4650465946424653
:10081000FFF798FF084305D0012004E02046394641
:10082000BDE8F08D0020054346EAE0762C433743CF
:100830000A986305E40AA0EB08000022FD0A44EAD6
:1008400047540A3002D500200146E9E70105101996
:100850006941DDE9084500196941BDE8F04DA2E7AD
:10086000FFE7FEE700000000704700000000000006
:1008700081B0EFF3108072B60090FFE7FEE7000052
:1008800082B08DF806008DF805109DF806008DF8F1
:1008900004009DF804008DF803009DF803009DF806
:1008A0000510884204D0FFE700208DF807000AE019
:1008B0009DF8040040F21471C2F20041087001205A
:1008C0008DF80700FFE79DF8070002B070470000B1
:1008D00080B586B00490039102200290FFE7029851
:1008E000022812DCFFE704980299405C039A114445
:1008F0004978FFF7C5FF38B9FFE741208DF80700B9
:10090000029801300290FFE7E9E79DF807005728B9
:1009100008DBFFE79DF80700592803DCFFE7072005
:100920000290FFE79DF80700522803D1FFE701205E
:10093000059015E004980399FFF7DCFC01280CDB17
:10094000FFE7029807300290029840F24871C2F225
:10095000004108600120059002E000200590FFE7BB
:10096000059806B080BD000082B08DF803009DF8A8
:1009700003008DF802009DF80200022803D1FFE772
:100980000120019002E000200190FFE7019802B0F1
:10099000704700000000000090B00F900E91002002
:1009A0000D908020C5F600000A90FFE70E980068C1
:1009B0000D99C840002800F0D081FFE70E9800682C
:1009C0000D9A0121914008400C900C98002800F0ED
:1009D000C081FFE70E98406801280FD0FFE70E980E
:1009E000406802280AD0FFE70E984068112805D019
:1009F000FFE70E98406812282FD1FFE70F98806814
:100A00000B900D984100032000FA01F10B988843E8
:100A10000B900E98C0680D99490000FA01F10B98EF
:100A200008430B900B980F9988600F9840680B90C3
:100A30000D99012000FA01F10B9888430B900E9854
:100A40004068C0F300100D9900FA01F10B980843BB
:100A50000B900B980F994860FFE70F98C0680B90B8
:100A60000D984100032000FA01F10B9888430B9088
:100A70000E9880680D99490000FA01F10B9808431F
:100A80000B900B980F99C8600E984068022805D00B
:100A9000FFE70E984068122826D1FFE70F980D99BE
:100AA0006FF0030202EA51010844006A0B900D98AE
:100AB00000F0070081000F2000FA01F10B98884335
:100AC0000B900E9800690D9901F00701890000FA5A
:100AD00001F10B9808430B900B980F990D9B02EABC
:100AE000530211440862FFE70F9800680B900D98BD
:100AF0004100032000FA01F10B9888430B900E98F7
:100B0000406800F003000D99490000FA01F10B98CC
:100B100008430B900B980F9908600E98C079C00697
:100B2000002840F11581FFE7FFE744F2F440C5F6E5
:100B30000200016841F002010160006800F002005B
:100B400009900998FFE70D9820F0030040F2084152
:100B5000C5F6000140580B900D9800F0030081008D
:100B60000F2000FA01F10B9888430B900F98002199
:100B7000C5F60201884203D1FFE7002008907AE021
:100B80000F9840F20041C5F60201884203D1FFE709
:100B9000012007906CE00F9840F60001C5F60201B5
:100BA000884203D1FFE7022006905EE00F9840F6EE
:100BB0000041C5F60201884203D1FFE703200590FA
:100BC00050E00F9841F20001C5F60201884203D1BE
:100BD000FFE70420049042E00F9841F20041C5F67F
:100BE0000201884203D1FFE70520039034E00F980B
:100BF00041F60001C5F60201884203D1FFE7062055
:100C0000029026E00F9841F60041C5F602018842A5
:100C100003D1FFE70720019018E00F9842F200018E
:100C2000C5F60201884203D1FFE7082000900AE0E0
:100C30000F9942F20042C5F602020A20914208BF13
:100C400009200090FFE700980190FFE701980290CB
:100C5000FFE702980390FFE703980490FFE70498EA
:100C60000590FFE705980690FFE706980790FFE7D5
:100C700007980890FFE708980D9901F00301890093
:100C800000FA01F10B9808430B900B980D9921F095
:100C9000030140F20842C5F6000288500A98006835
:100CA0000B900C990B9888430B900E988079C00795
:100CB00028B1FFE70C990B9808430B90FFE70B98BE
:100CC0000A9908600A9840680B900C990B98884321
:100CD0000B900E9880798007002805D5FFE70C99C6
:100CE0000B9808430B90FFE70B980A9948604FF068
:100CF000B04000680B900C990B9888430B900E98AD
:100D00008079C006002805D5FFE70C990B980843A9
:100D10000B90FFE70B984FF0B04108600420C5F638
:100D2000000000680B900C990B9888430B900E986C
:100D300080798006002805D5FFE70C990B980843B9
:100D40000B90FFE70B980421C5F600010860FFE750
:100D5000FFE70D9801300D9028E610B070470000B5
:100D600082B00190ADF802108DF801209DF80100CD
:100D700028B1FFE7BDF802000199886105E0BDF8E0
:100D80000200000401998861FFE702B0704700008B
:100D900041F20000C5F600400068000C70470000FA
:100DA00040F6F870C2F20040006870470000000092
:100DB00040F27A00C2F20040027840F6F871C2F2C6
:100DC00000410868104408607047000000000000FF
:100DD00080B582B0032000F0ABF800F07DFB44F258
:100DE0001842C5F602021168C1F3032347F2C83165
:100DF000C0F60001CB5C03F01F03D84000900098C0
:100E0000126802F00F02895C01F01F01C84040F235
:100E10001001C2F200410860009840F20C01C2F2D9
:100E200000410860002000F013F820B1FFE7012026
:100E30008DF8070005E000F04FF800208DF807005E
:100E4000FFE79DF8070002B080BD00000000000031
:100E500080B582B0009040F27A00C2F20040007883
:100E600020B9FFE701208DF8070030E040F20C00C8
:100E7000C2F20040006840F27A01C2F200410A78F2
:100E80004FF47A71B1FBF2F1B0FBF1F001F0F8F937
:100E900020B1FFE701208DF8070018E000980F2827
:100EA0000DD8FFE700994FF0FF30002200F028F83E
:100EB000009840F27C01C2F20041086003E001208A
:100EC0008DF8070003E000208DF80700FFE79DF88C
:100ED000070002B080BD000081B0FFE744F2F4409B
:100EE000C5F60200016841F002010160006800F0EF
:100EF000020000900098FFE701B07047000000007A
:100F000080B586B0ADF816000491039202F040F867
:100F10000290BDF91600019002980499039A01F01D
:100F200023FB0146019802F03BF806B080BD0000AB
:100F300080B582B00190019802F056F802B080BDF1
:100F400080B584B0029044F60C00C5F6020000683B
:100F500000F004010020B0EB910F13D1FFE744F63D
:100F60000C00C5F60200006800F0070002998842F4
:100F700004D0FFE701208DF80F002EE000208DF84F
:100F80000F002AE044F60C01C5F60201086820F0C3
:100F90000700029A10430860FFF702FF0190FFE785
:100FA00044F60400C5F60200006800F40051002079
:100FB000B0EB513F0DD1FFE7FFF7F2FE0199401A68
:100FC000B0F57A7F04D9FFE701208DF80F0004E027
:100FD000E6E700208DF80F00FFE79DF80F0004B052
:100FE00080BD00000000000080B586B00490039131
:100FF000049820B9FFE701208DF817003CE2039820
:1010000042F20001C5F20021096801F00F01884297
:1010100016D9FFE742F20000C5F20020016821F076
:101020000F01039A11430160006800F00F0003995B
:10103000884204D0FFE701208DF817001CE2FFE78B
:10104000049800784007002819D5FFE70498006944
:1010500044F21841C5F60201096801F070018842A6
:101060000CD9FFE744F21841C5F60201086820F0E8
:101070007000049A126910430860FFE7FFE70498C4
:1010800000780007002819D5FFE70498406944F26A
:101090001C41C5F60201096801F0700188420CD9B3
:1010A000FFE744F21C41C5F60201086820F0700019
:1010B000049A526910430860FFE7FFE7049800783C
:1010C000C006002819D5FFE70498806944F21C4146
:1010D000C5F60201096801F4E06188420CD9FFE716
:1010E00044F21C41C5F60201086820F4E060049A4D
:1010F000926910430860FFE7FFE7049800788006D4
:10110000002819D5FFE70498C06944F22041C5F6CC
:101110000201096801F0700188420CD9FFE744F22E
:101120002041C5F60201086820F07000049AD269D7
:1011300010430860FFE7FFE7049800788007002865
:1011400019D5FFE70498C06844F21841C5F60201BA
:10115000096801F00F0188420CD9FFE744F21841F9
:10116000C5F60201086820F00F00049AD268104307
:101170000860FFE7FFE704980078C007002800F048
:101180008C80FFE744F21841C5F60201086820F49C
:101190007060049A926810430860049840680228BE
:1011A00011D1FFE744F20040C5F60200006800F4E8
:1011B00000310020B0EB514F04D1FFE701208DF842
:1011C000170059E13EE004984068032811D1FFE779
:1011D00044F20040C5F60200006800F000710020F3
:1011E000B0EB516F04D1FFE701208DF8170043E108
:1011F00027E004984068012811D1FFE744F200403D
:10120000C5F60200006800F480710020B0EB112FD9
:1012100004D1FFE701208DF817002DE110E044F222
:101220000040C5F60200006800F004010020B0EBA9
:10123000910F04D1FFE701208DF817001CE1FFE7B3
:10124000FFE7FFE744F21041C5F60201086820F00D
:101250000700049A526810430860FFF7A1FD01904F
:10126000FFE744F21040C5F60200006800F03800C5
:1012700004994968B0EBC10F0ED0FFE7FFF790FD6E
:101280000199401A41F28931884204D3FFE70320D3
:101290008DF81700F0E0E4E7FFE704980078800796
:1012A000002819D5FFE70498C06844F21841C5F634
:1012B0000201096801F00F0188420CD2FFE744F2F5
:1012C0001841C5F60201086820F00F00049AD268A0
:1012D00010430860FFE7FFE7039842F20001C5F200
:1012E0000021096801F00F01884216D2FFE742F29F
:1012F0000000C5F20020016821F00F01039A11439C
:101300000160006800F00F000399884204D0FFE7F5
:1013100001208DF81700AFE0FFE704980078400740
:10132000002819D5FFE70498006944F21841C5F672
:101330000201096801F0700188420CD2FFE744F213
:101340001841C5F60201086820F07000049A12697D
:1013500010430860FFE7FFE70498007800070028C3
:1013600019D5FFE70498406944F21C41C5F6020113
:10137000096801F0700188420CD2FFE744F21C4179
:10138000C5F60201086820F07000049A5269104303
:101390000860FFE7FFE704980078C006002819D529
:1013A000FFE70498806944F21C41C5F60201096810
:1013B00001F4E06188420CD2FFE744F21C41C5F61B
:1013C0000201086820F4E060049A92691043086002
:1013D000FFE7FFE7049800788006002819D5FFE7AB
:1013E0000498C06944F22041C5F60201096801F081
:1013F000700188420CD2FFE744F22041C5F6020199
:10140000086820F07000049AD26910430860FFE772
:10141000FFE700F061F844F21842C5F602021168D5
:10142000C1F3032347F2C831C0F60001CB5C03F0DF
:101430001F03D84000900098126802F00F02895CE8
:1014400001F01F01C84040F21001C2F200410860E3
:10145000009840F20C01C2F20041086040F27C00AA
:10146000C2F200400068FFF7F3FC8DF80B009DF816
:101470000B008DF81700FFE79DF8170006B080BD40
:1014800080B582B000F028F844F21842C5F6020296
:101490001168C1F3032347F2C831C0F60001CB5CE9
:1014A00003F01F03D84001900198126802F00F0268
:1014B000895C01F01F0120FA01F140F21000C2F234
:1014C00000400160019940F20C02C2F2004211603A
:1014D000006802B080BD00008AB044F21040C5F63A
:1014E0000200006800F0380001460191182800F25F
:1014F00069810199DFE811F0190066016601660152
:1015000066016601660166013A00660166016601D0
:1015100066016601660166014000660166016601BA
:101520006601660166016601460044F20040C5F6A8
:101530000200006800F020010020B0EB511F0ED027
:10154000FFE744F20040C5F602000068C0F3C101A5
:1015500049F20000C0F2D030C840029005E049F2E4
:101560000000C0F2D0300290FFE731E140F60010F9
:10157000C0F23D0002902BE141F20020C0F27A005F
:10158000029025E144F22840C5F60200016801F00E
:10159000030108910068C0F30510079044F22C4045
:1015A000C5F60200006800F001000690069844F2BB
:1015B0003441C5F60201096889B2C908484300EE02
:1015C000100AB8EE400A8DED040A0798002800F0D2
:1015D000F580FFE70898009048B1FFE700980128E0
:1015E00069D0FFE70098022800F08980ABE044F260
:1015F0000040C5F60200006800F020010020B0EBBA
:10160000511F33D0FFE744F20040C5F602000068E6
:10161000C0F3C10149F20000C0F2D030C8400590CB
:101620009DED050AB8EE400A9DED071AB8EE411A85
:1016300080EE010A44F23040C5F6020000686FF304
:101640005F2001EE100AB8EE411A9DED042A9FEDCD
:10165000633A82EE032A31EE021AB7EE002A31EE27
:10166000021A20EE010A8DED030A23E09DED070A20
:10167000B8EE401A9FED5B0A80EE010A44F230405A
:10168000C5F6020000686FF35F2001EE100AB8EEA5
:10169000411A9DED042A9FED513A82EE032A31EE64
:1016A000021AB7EE002A31EE021A20EE010A8DED81
:1016B000030AFFE76BE09DED070AB8EE401A9FEDC5
:1016C000480A80EE010A44F23040C5F60200006884
:1016D0006FF35F2001EE100AB8EE411A9DED042A67
:1016E0009FED3E3A82EE032A31EE021AB7EE002A4F
:1016F00031EE021A20EE010A8DED030A47E09DED5E
:10170000070AB8EE401A9FED340A80EE010A44F24F
:101710003040C5F6020000686FF35F2001EE100A4A
:10172000B8EE411A9DED042A9FED2C3A82EE032A71
:1017300031EE021AB7EE002A31EE021A20EE010A4B
:101740008DED030A23E09DED070AB8EE401A9FEDE8
:10175000240A80EE010A44F23040C5F60200006817
:101760006FF35F2001EE100AB8EE411A9DED042AD6
:101770009FED1A3A82EE032A31EE021AB7EE002AE2
:1017800031EE021A20EE010A8DED030AFFE744F262
:101790003040C5F60200006881B2012000EB512004
:1017A00009909DED030A9DED091AB8EE411A80EEED
:1017B000010ABCEEC00A8DED020A02E00020029090
:1017C000FFE705E040F60010C0F23D000290FFE7A1
:1017D00002980AB0704700BF0024F44A0000004697
:1017E0000024744A0024744C80B58CB00A900A9886
:1017F00028B9FFE701208DF82F0000F03CBD0A98C2
:101800000078C007002800F0B980FFE744F21040DC
:10181000C5F60200006800F03800069044F2284047
:10182000C5F6020000680590069810280AD0FFE768
:10183000069818281CD1FFE7059800F0030002283D
:1018400016D1FFE744F20040C5F60200006800F43C
:1018500000310020B0EB514F09D0FFE70A984068F3
:1018600028B9FFE701208DF82F0000F004BD84E0C7
:10187000FFE70A984068B0F5803F09D1FFE744F2DE
:101880000041C5F60201086840F48030086032E08B
:101890000A98406868B9FFE744F20041C5F60201C2
:1018A000086820F480300860086820F48020086010
:1018B00020E00A984068B0F5A02F0DD1FFE744F270
:1018C0000041C5F60201086840F4802008600868FD
:1018D00040F4803008600CE044F20041C5F602019B
:1018E000086820F480300860086820F480200860D0
:1018F000FFE7FFE7FFE7FFE70A984068F0B1FFE77F
:10190000FFF74EFA0990FFE744F20040C5F60200E7
:10191000006800F400310020B0EB514F0DD1FFE71B
:10192000FFF73EFA0999401A652805D3FFE703201F
:101930008DF82F0000F09FBCE6E71DE0FFF730FABE
:101940000990FFE744F20040C5F60200006800F489
:1019500000310020B0EB514F0DD0FFE7FFF720FA28
:101960000999401A652805D3FFE703208DF82F0059
:1019700000F081BCE6E7FFE7FFE7FFE70A980078A1
:101980008007002840F1ED80FFE744F21040C5F6E3
:101990000200006800F03800049044F22840C5F6C8
:1019A000020000680390049850B1FFE704981828DB
:1019B00050D1FFE79DF80C00800700284AD1FFE7CF
:1019C00044F20040C5F60200006800F00401002067
:1019D000B0EB910F09D0FFE70A98C06828B9FFE77C
:1019E00001208DF82F0000F046BCFFE7FFF7D0F98B
:1019F00041F2030188421DD8FFE70A980069402898
:101A00000AD1FFE744F20441C5F60201086820222A
:101A100062F3113008600CE044F20441C5F60201A3
:101A2000086820F47C300A9A126940EA02300860A3
:101A3000FFE70CE044F20441C5F60201086820F01B
:101A4000FE400A9A126940EA02600860FFE7FFE779
:101A5000FFE785E00A98C06800285BD0FFE744F202
:101A60000041C5F60201086820F019000A9AD26800
:101A700010430860FFF794F90990FFE744F2004033
:101A8000C5F60200006800F004010020B0EB910FE1
:101A90000CD1FFE7FFF784F90999401A032804D312
:101AA000FFE703208DF82F00E5E3E7E7FFE7FFF707
:101AB0006FF941F2030188421DD8FFE70A980069D7
:101AC00040280AD1FFE744F20441C5F60201086844
:101AD000202262F3113008600CE044F20441C5F6A4
:101AE0000201086820F47C300A9A126940EA023048
:101AF0000860FFE70CE044F20441C5F60201086803
:101B000020F0FE400A9A126940EA02600860FFE78E
:101B1000FFE724E044F20041C5F60201086820F026
:101B200001000860FFF73CF90990FFE744F200402C
:101B3000C5F60200006800F004010020B0EB910F30
:101B40000CD0FFE7FFF72CF90999401A032804D3BA
:101B5000FFE703208DF82F008DE3E7E7FFE7FFE7BE
:101B6000FFE70A980078C006002840F1EB80FFE705
:101B700044F21040C5F60200006800F03800029000
:101B800044F22840C5F60200006801900298082837
:101B90000AD0FFE70298182850D1FFE7019800F01B
:101BA000030001284AD1FFE744F20040C5F60200D5
:101BB000006800F480710020B0EB112F09D0FFE71E
:101BC0000A98C069802804D0FFE701208DF82F0013
:101BD00051E3FFE7FFF7DCF841F2030188421DD82B
:101BE000FFE70A98006A20280AD1FFE744F204417F
:101BF000C5F602010868102262F39E6008600CE0DE
:101C000044F20441C5F60201086820F0F8400A9A3F
:101C1000126A40EA82600860FFE70CE044F20C417F
:101C2000C5F60201086820F07C500A9A126A40EA60
:101C300002600860FFE7FFE7FFE782E00A98C069FB
:101C4000002858D0FFE744F20041C5F602010868B9
:101C500040F080000860FFF7A3F80990FFE744F226
:101C60000040C5F60200006800F480710020B0EB6F
:101C7000112F0CD1FFE7FFF793F80999401A0328B9
:101C800004D3FFE703208DF82F00F4E2E7E7FFE736
:101C9000FFF77EF841F2030188421DD8FFE70A985A
:101CA000006A20280AD1FFE744F20441C5F6020188
:101CB0000868102262F39E6008600CE044F2044160
:101CC000C5F60201086820F0F8400A9A126A40EA54
:101CD00082600860FFE70CE044F20C41C5F60201A7
:101CE000086820F07C500A9A126A40EA0260086094
:101CF000FFE7FFE724E044F20041C5F6020108686F
:101D000020F080000860FFF74BF80990FFE744F2ED
:101D10000040C5F60200006800F480710020B0EBBE
:101D2000112F0CD0FFE7FFF73BF80999401A032861
:101D300004D3FFE703208DF82F009CE2E7E7FFE7DD
:101D4000FFE7FFE70A980078000700284FD5FFE774
:101D50000A98406928B3FFE744F27441C5F60201CE
:101D6000086840F001000860FFF71AF80990FFE7E3
:101D700044F27440C5F60200006800F00201002041
:101D8000B0EB510F0CD1FFE7FFF70AF80999401AA1
:101D9000032804D3FFE703208DF82F006BE2E7E769
:101DA00024E044F27441C5F60201086820F0010005
:101DB0000860FEF7F5FF0990FFE744F27440C5F6AE
:101DC0000200006800F002010020B0EB510F0CD0BF
:101DD000FFE7FEF7E5FF0999401A032804D3FFE760
:101DE00003208DF82F0046E2E7E7FFE7FFE70A98B8
:101DF0000078800600284FD5FFE70A98806928B34D
:101E0000FFE744F20041C5F60201086840F4805043
:101E10000860FEF7C5FF0990FFE744F20040C5F6F1
:101E20000200006800F400510020B0EB513F0CD1DB
:101E3000FFE7FEF7B5FF0999401A032804D3FFE72F
:101E400003208DF82F0016E2E7E724E044F200417A
:101E5000C5F60201086820F480500860FEF7A0FF74
:101E60000990FFE744F20040C5F60200006800F464
:101E700000510020B0EB513F0CD0FFE7FEF790FF80
:101E80000999401A032804D3FFE703208DF82F0097
:101E9000F1E1E7E7FFE7FFE70A980078400700284D
:101EA00040F1A780FFE744F60001C5F6020108688B
:101EB00040F480700860FEF773FF0990FFE744F676
:101EC0000000C5F602000068C00500280CD4FFE73A
:101ED000FEF766FF0999401A652804D3FFE703203F
:101EE0008DF82F00C7E1EAE7FFE70A98806801282C
:101EF00009D1FFE744F27041C5F60201086840F0DD
:101F00000100086031E00A98806868B9FFE744F290
:101F10007041C5F60201086820F0010008600868F9
:101F200020F0040008601FE00A98806805280DD1A1
:101F3000FFE744F27041C5F60201086840F0040072
:101F40000860086840F0010008600CE044F270414D
:101F5000C5F60201086820F001000860086820F05A
:101F600004000860FFE7FFE7FFE7FFE70A988068E3
:101F7000F8B1FFE7FEF714FF0990FFE744F2704065
:101F8000C5F60200006800F002010020B0EB510F1E
:101F90000ED1FFE7FEF704FF0999401A41F289319B
:101FA000884204D3FFE703208DF82F0063E1E5E7C3
:101FB0001EE0FEF7F5FE0990FFE744F27040C5F61B
:101FC0000200006800F002010020B0EB510F0ED0BB
:101FD000FFE7FEF7E5FE0999401A41F28931884290
:101FE00004D3FFE703208DF82F0044E1E5E7FFE786
:101FF000FFE70A98406A002800F03981FFE744F2C1
:102000001040C5F60200006800F03800182800F003
:10201000E080FFE70A98406A022840F0B480FFE7BA
:1020200044F20041C5F60201086820F080700860A3
:10203000FEF7B6FE0990FFE744F20040C5F6020045
:10204000006800F000710020B0EB516F0CD0FFE78A
:10205000FEF7A6FE0999401A032804D3FFE70320E0
:102060008DF82F0007E1E7E7FFE744F22841C5F6C6
:102070000201086840F2F33290430A9B9A6ADB6AD5
:1020800042EA0312104308600A99086BD1F834C081
:102090008B6BCA6B01386FF35F204FF60061CFF690
:1020A000FF7101EB4C2189B208440021CFF6FF718A
:1020B00001EB034101F4FE0108444FF07F4101EBC5
:1020C000026101F0FE41084444F23041C5F60201CC
:1020D0000860FFE744F22C41C5F602010091086850
:1020E00020F00100086044F23442C5F60202106894
:1020F0004FF6F87398430A9B9B6C40EAC30010604C
:10210000086820F00C000A9A126C104308600868F6
:1021100020F002000A9A526C10430860086840F4EC
:1021200080300860086840F400300860086840F4B7
:1021300080200860086840F00100086044F2004117
:10214000C5F60201086840F080700860FEF728FEBE
:102150000990FFE744F20040C5F60200006800F075
:1021600000710020B0EB516F0CD1FFE7FEF718FEB5
:102170000999401A032804D3FFE703208DF82F00A4
:1021800079E0E7E724E044F20041C5F6020108687F
:1021900020F080700860FEF703FE0990FFE744F22C
:1021A0000040C5F60200006800F000710020B0EBAE
:1021B000516F0CD0FFE7FEF7F3FD0999401A032891
:1021C00004D3FFE703208DF82F0054E0E7E7FFE793
:1021D0004CE044F22840C5F602000068089044F242
:1021E0003040C5F60200006807900A98406A01284E
:1021F00037D0FFE7089800F003000A99896A8842FF
:102200002FD1FFE7089800F47C710A98C06AB0EB00
:10221000111F26D1FFE707986FF35F200A99096B1A
:10222000013988421DD1FFE7BDF81C100A98406BA8
:102230000138B0EB512F14D1FFE7079800F4FE01ED
:102240000A98806B0138B0EB114F0AD1FFE707986D
:1022500000F0FE410A98C06B0138B0EB116F04D05A
:10226000FFE701208DF82F0005E0FFE7FFE70020E2
:102270008DF82F00FFE79DF82F000CB080BD000007
:1022800080B582B00190019800F08AFB02B080BD59
:10229000FFE7FEE70000000081B0009040F680609C
:1022A000CEF200000068C007A8B1FFE740F600606A
:1022B000CEF200000068C00768B1FFE7FFE74FF00B
:1022C0006040006810B9FFE700BFF8E700984FF0E2
:1022D00060410870FFE7009801B0704700000000FF
:1022E00080B59AB00020199018901790169015900C
:1022F000FFE744F2E040C5F60200016841F0040146
:102300000160006800F0040014901498FFE7FFE7F4
:1023100044F2E040C5F60200016841F0800101602E
:10232000006800F0800013901398FFE7FFE744F285
:10233000E040C5F60200016841F00101016000685B
:1023400000F0010012901298FFE7FFE744F2E0402E
:10235000C5F60200016841F002010160006800F06A
:10236000020011901198FFE7FFE744F2E040C5F644
:102370000200016841F008010160006800F00800F7
:1023800010901098FFE7FFE744F2E040C5F6020026
:10239000016841F040010160006800F040000F90CA
:1023A0000F98FFE7FFE744F2E040C5F6020001683E
:1023B00041F010010160006800F010000E900E98CE
:1023C000FFE740F20040C5F60200029044F201012E
:1023D000019100220B92FEF7C3FC0B9A40F60040DD
:1023E000C5F6020005904FF480610491FEF7B8FC39
:1023F0000B9A41F20000C5F602000C9002210991EF
:10240000FEF7AEFC0B984FF4005103911591169016
:10241000179040F60000C5F60200009015A90D9136
:10242000FEF7BAFA0098099B0B9A0D994FF0320CFF
:10243000CDF854C01693179218920B220792199256
:10244000FEF7AAFA0798099B0B9A0D994FF0860C94
:10245000CDF854C016931792189219900020C5F623
:1024600002000690FEF798FA019B02980B9A0D99CC
:10247000159301230A93169317921892FEF78CFA7C
:102480000298079ADDF824C00B9B0D99DDF80CE04B
:10249000CDF854E0CDF858C0179318931992FEF771
:1024A0007BFA0598099B0B9A0D994FF4407CCDF867
:1024B00054C016931792189207221992FEF76CFADD
:1024C000DDF810C005980A9B0B9A0D99CDF854C001
:1024D000169317921892FEF75FFA0B980D998022C7
:1024E00015920022C1F211121692179041F60000C7
:1024F000C5F602000890FEF74FFA0698099B0B9A62
:102500000D994FF4C85CCDF854C0169317921892E9
:102510000A221992FEF740FA079A0898DDF824C0BB
:102520000B9B0D994FF4205ECDF854E0CDF858C0C8
:10253000179318931992FEF72FFADDF824C00A9B1F
:102540000B9A0C980D99CDF854C0169317921892C7
:10255000FEF722FA1AB080BDFFE7FEE70000000098
:10256000FFE7FEE70000000088B0079006910592A3
:10257000079800F0070004900498C0F107000528B0
:1025800003D3FFE70420019004E00498C0F10700A2
:102590000190FFE70198039004980430062803D8BF
:1025A000FFE70020009003E0049803380090FFE765
:1025B0000098029006980399012202FA01F101396C
:1025C0000840029B984005999A40013A11400843FF
:1025D00008B070470000000040F25073C2F20043A0
:1025E000196840F22070C2F2004000EBC10191ED89
:1025F000000B40F24C72C2F20042116800EBC101C4
:1026000081ED000B40F25471C2F20041D1F800C0DC
:1026100000EBCC0C9CED000B1B6800EBC30383EDBF
:10262000000B126800EBC20292ED000B096800EB90
:10263000C10080ED000B70478AB08DED080B8DED69
:10264000061B05909DED080B8DED020B9DED060B15
:102650008DED000B40F2A070C2F2004090ED000B37
:102660009DED021B9DED002B31EE021B20EE010BB8
:102670008DED020B90ED000B9DED021B9DED002BEF
:1026800031EE021B20EE010B8DED000B9DED020BD8
:102690009DED001B30EE010B40F6F070C2F20040E1
:1026A00090ED001B80EE010B059880ED000B0AB049
:1026B000704700000000000081B0009040F24C71B3
:1026C000C2F2004100200860FFE7009890ED020B85
:1026D00090ED043B90ED062B90ED081B30EE030BC4
:1026E00030EE020B30EE410B40F2A071C2F200411D
:1026F00091ED001B20EE010B80ED020B009890ED98
:10270000020B90ED043B90ED062B90ED081B30EE94
:10271000030B30EE420B30EE010B91ED001B20EE6F
:10272000010B80ED040B009890ED020B90ED043B43
:1027300090ED062B90ED081B30EE430B30EE020BB4
:1027400030EE010B91ED001B20EE010B80ED060B2E
:10275000009890ED023B90ED042B90ED061B90ED60
:10276000080B32EE432B31EE021B30EE010B40F62C
:10277000F071C2F2004191ED001B80EE010B80ED83
:10278000080B40F24C70C2F2004001680131016058
:102790000068052801DCFFE797E701B070470000FB
:1027A000704700000000000083B0029002980068AB
:1027B0000A300190FFE740F21470C2F20040007846
:1027C000412810D1FFE7019801380190019840F2AB
:1027D0004871C2F200410968401A0299086000205D
:1027E0008DF80300FFE7FFE79DF803000028E2D122
:1027F000FFE703B07047000081B040F21470C2F2EE
:10280000004000784138B0FA80F04009009000980C
:1028100040F21071C2F200410A681043086040F2B1
:102820001571C2F200414220087001B070470000EB
:1028300040F21471C2F200414120087040F2107160
:10284000C2F2004100200860704700000000000054
:1028500080B584B08DF80F0002919DF80F000299A9
:1028600008709DF80F00FEF77FF820B9FFE7029986
:1028700003200870FFE79DF80F000146019104282E
:1028800023D80199DFE801F00307181C1D00029905
:102890000020087019E040F24870C2F20040006861
:1028A000652804DBFFE702990020087003E0029925
:1028B00003200870FFE708E002990120087004E097
:1028C00003E0029902200870FFE704B080BD000019
:1028D00084B0039002910192039802300090029814
:1028E000009908440199086004B070470000000096
:1028F00086B00590049103920293039805300090EE
:1029000002980599009A41F822000598009A00EB78
:10291000820150F8220048600098059901EB80017F
:10292000886200980190FFE7019800990131884280
:102930000EDCFFE70098049900EB800201EB021126
:10294000019A41F82200FFE7019801300190EBE77E
:102950000498009901EB810200EB021000EB810169
:1029600051F8040C013041F8040C0598009A50F815
:102970002200049902EB820301EB031101EB8201B7
:10298000C1F8200340F24871C2F2004105200860FE
:1029900006B0704700000000704700000000000013
:1029A00080B582B0009000980138B0F1807F03D3E9
:1029B000FFE70120019019E0009801384EF2140160
:1029C000CEF2000108604FF0FF300F2100F0E8FA6E
:1029D0004EF21801CEF20001002008604EF2100203
:1029E000CEF20002072111600190FFE7019802B0CA
:1029F00080BD00000000000080B5FEF7D9F980BD61
:102A000080B59EB00BA84C21FDF769FC0020019019
:102A10000A90099008900790069005900490039002
:102A20000220FEF78DFAFFE70020029044F618001E
:102A3000C5F60200016841F440410160006800F4FD
:102A40004040029040F22C40C5F60000016841F081
:102A500001010160006800F0010002900298FFE7A8
:102A6000FFE744F61800C5F60200006800F40050C5
:102A7000B0F5005F01D0FFE7F3E702210B910120E1
:102A80000E9040200F901491002015900422169271
:102A900032221792189119911A910C211B911C90B6
:102AA0001D900BA8FEF7A0FE18B1FFE7FDF7E0FEB2
:102AB000FFE73F20039003200490002005900820AA
:102AC00006904020079008904FF4806109910A9089
:102AD00003A80221FEF788FA18B1FFE7FDF7C8FE48
:102AE000FFE71EB080BD00008BB044F21040C5F679
:102AF0000200006800F0380001460191182800F239
:102B000033810199DFE811F0190030013001300103
:102B10003001300130013001270030013001300137
:102B200030013001300130012D0030013001300121
:102B30003001300130013001330044F20040C5F66D
:102B400002000068C0F3C10149F20000C0F2D030B9
:102B5000C840049016E140F60010C0F23D00049019
:102B600010E141F20020C0F27A0004900AE144F240
:102B70002840C5F60200016801F0030109910068D0
:102B8000C0F30510089044F22C40C5F6020000681E
:102B900000F001000790079844F23441C5F60201A5
:102BA000096889B2C908484300EE100AB8EE400A25
:102BB0008DED030A0898002800F0D280FFE70998FD
:102BC000009040B1FFE70098012837D0FFE7009858
:102BD000022857D07AE044F20040C5F602000068AF
:102BE000C0F3C10149F20000C0F2D030C8400690E5
:102BF0009DED060AB8EE400A9DED081AB8EE411A9E
:102C000080EE010A44F23040C5F6020000686FF31E
:102C10005F2001EE100AB8EE411A9DED032A9FEDE8
:102C20006D3A82EE032A31EE021AB7EE002A31EE37
:102C3000021A20EE010A8DED020A7AE09DED080AE3
:102C4000B8EE401A9FED640A80EE010A44F230406B
:102C5000C5F6020000686FF35F2001EE100AB8EEBF
:102C6000411A9DED032A9FED5B3A82EE032A31EE75
:102C7000021AB7EE002A31EE021A20EE010A8DED9B
:102C8000020A56E09DED080AB8EE401A9FED500A80
:102C900080EE010A44F23040C5F6020000686FF38E
:102CA0005F2001EE100AB8EE411A9DED032A9FED58
:102CB000493A82EE032A31EE021AB7EE002A31EECB
:102CC000021A20EE010A8DED020A32E044F20040C1
:102CD000C5F602000068C0F3C10149F20000C0F26D
:102CE000D030C84006909DED060AB8EE400A9DED32
:102CF000081AB8EE411A80EE010A44F23040C5F6D7
:102D0000020000686FF35F2001EE100AB8EE411A6E
:102D10009DED032A9FED2F3A82EE032A31EE021A2F
:102D2000B7EE002A31EE021A20EE010A8DED020AFA
:102D3000FFE744F23040C5F60200006881B201208E
:102D400000EB51200A909DED020A9DED0A1AB8EEA3
:102D5000411A80EE010ABCEEC00A8DED040A02E0C1
:102D600000200490FFE70DE044F20040C5F60200A9
:102D70000068C0F3C10149F20000C0F2D030C84081
:102D80000490FFE744F21842C5F602021068C0F34F
:102D9000032047F2C831C0F60001085C0590059B8E
:102DA0000498D84004900498126802F00F02895CDD
:102DB00001F01F01C84040F21001C2F2004108605A
:102DC000049840F20C01C2F2004108600BB0704759
:102DD0000024F44A000000460024744A0000000069
:102DE00081B04EF68851CEF20001086840F47000C0
:102DF000086042F20000C5F20020006800F00F00F9
:102E000006280AD8FFE742F20001C5F2002108684F
:102E1000072262F303000860FFE744F20041C5F6B1
:102E20000201086840F00100086044F21042C5F653
:102E300002020020106008684EF67F52CEF6F6229D
:102E40001040086042F20000C5F20020006800F067
:102E50000F0008280AD3FFE742F20001C5F2002163
:102E60000868072262F303000860FFE744F2184194
:102E7000C5F6020100200090086044F21C41C5F62E
:102E80000201086044F22041C5F60201086044F2E4
:102E90002842C5F6020240F20021C0F20221116070
:102EA00044F22C42C5F602020021C0F2FF1111606B
:102EB00044F23042C5F6020240F28021C0F2011114
:102EC000116044F23442C5F60202106044F2384206
:102ED000C5F60202116044F23C42C5F602021060DF
:102EE00044F24042C5F60202116044F24441C5F684
:102EF0000201086044F20042C5F60202116821F4A2
:102F00008021116044F26041C5F60201086041F27F
:102F10000001C5F600410968B0EB517F07D1FFE71A
:102F200048F20811C5F2001101200860FFE744F2E1
:102F30000001C5F2002143F2D20008604EF60851AC
:102F4000CEF200014FF00060086001B07047000051
:102F5000FFE7FEE70000000081B0ADF80200BDF918
:102F60000200002812D4FFE7BDF9021001F01F0291
:102F7000012090404A094EF28011CEF2000141F842
:102F80002200BFF34F8FBFF36F8FFFE701B0704791
:102F90004EF60C50CEF200000068C0F302207047DD
:102FA00082B0ADF806000091BDF9060000280AD4F1
:102FB000FFE700980001BDF906104EF20042CEF284
:102FC000000288540BE000980001BDF8061001F0E3
:102FD0000F014EF61452CEF200028854FFE702B001
:102FE000704700000000000083B00290029800F0DB
:102FF000070000904EF60C51CEF2000108680190D7
:1030000001984FF6FF02104001900198009A40EAA3
:1030100002200022C0F2FA52104301900198086089
:1030200003B070470000000080B5FDF7B9FE80BD19
:1030300010B58AB00890079108980088ADF81A007A
:10304000BDF81A00C0F3C0108DF817009DF81700E6
:1030500038B1FFE7BDF81A0000F07F00ADF8260098
:103060007BE0BDF81A0000F00700ADF81400BDF8D1
:103070001A00C0F3C300ADF81200BDF9120040EA17
:103080000010ADF81200BDF914000146039120B103
:10309000FFE7039801282AD03DE0BDF9120021285E
:1030A00004DCFFE72220ADF81200FFE7DDF81CE0AA
:1030B000DEF81800DEF81410BEF90020BEF9023068
:1030C000BDF912C0BEF83840EE46CEF80440CEF846
:1030D00000C000F0B9F9ADF818000798C08F28B902
:1030E000FFE7BDF818000799C887FFE718E0079ABF
:1030F00002F12800BDF91210128F00F079F9ADF835
:1031000018000798808F28B9FFE7BDF818000799C5
:103110008887FFE704E0BDF81A00ADF81800FFE764
:10312000BDF818000799098F01F01EFA0799088762
:10313000BDF8180000F07F00ADF818009DF81B10D6
:10314000BDF8180040EA012040F08000089908808E
:10315000BDF81800ADF82600FFE7BDF926000AB05B
:1031600010BD00000000000080B582B000208DF886
:1031700007009DF80700012807DBFFE747F26F70A3
:10318000C0F6000002F062FCFFE79DF8070002B005
:1031900080BD00000000000080B584B00390029163
:1031A000019203980199FFF743FFADF802000298DE
:1031B0000199FFF73DFFADF80000BDF90200BDF930
:1031C0000010401A04B080BD83B0029001910092BB
:1031D000009878B9FFE70299B1F90000020A62F39A
:1031E000070008800199B1F90000020A62F30700A4
:1031F0000880FFE70298B0F902000199B1F90210C6
:10320000401A03B07047000082B00190009100980E
:10321000008801990880009840880199488002B090
:10322000704700000000000080B58AB00990ADF83A
:1032300022100020ADF82000ADF81E00ADF81C00F3
:103240000999496A069109998988ADF81610BDF85F
:103250002210ADF80610ADF80200FFE7BDF902003C
:10326000BDF9161088425DDAFFE79DF80200ADF85F
:103270000400069801A900F0C7FA0490069800F02F
:10328000C7FC0690049888B9FFE7BDF81C00013020
:10329000ADF81C000698006840680088C0F3002163
:1032A000BDF820000844ADF8200029E0BDF81E005C
:1032B0000130ADF81E00049840680088C00758B17E
:1032C000FFE7049840680088C0F34021BDF8200063
:1032D0000844ADF82000FFE70498006878B1FFE7E4
:1032E00004980068039003980068049908600698A1
:1032F000006803990860039806990860FFE7FFE7F4
:10330000BDF90600002806D4FFE7BDF8060001302D
:10331000ADF80600FFE7FFE7BDF802000130ADF8A9
:1033200002009BE7BDF81E10BDF81C00C0EB810138
:10333000BDF820000844ADF82000BDF922000128A6
:103340000ADBFFE70698099A43F29911C0F60001DB
:1033500000F09AFB0690FFE70698006800F03CFC3E
:103360000290069801A900F04FFA0390039820B943
:10337000FFE7069800680390FFE7FFE7039870B146
:10338000FFE706984068B0F90000BDF8201001F092
:10339000DBF8ADF82000039800680390EEE7029890
:1033A0000699096800F04CFC0290069843F2C91196
:1033B000C0F60001002200F067FB06900698006846
:1033C0000390FFE7039870B1FFE706984068B0F9F3
:1033D0000000BDF8201001F0B7F8ADF82000039808
:1033E00000680390EEE7BDF820000AB080BD000041
:1033F00080B588B00790ADF81A10ADF8182007987E
:10340000006805900798C06804900798406803908A
:10341000079880680290BDF81A00ADF8060005987C
:103420000499039A029BBDF906C0EE46CEF800C08F
:1034300001F0DEFEBDF8181001F086F8ADF81800B6
:10344000BDF8180008B080BD10B598B08C4686460F
:103450001B981A99CDF85CE0CDF858C0ADF856200D
:10346000ADF85430ADF85210ADF8500016980390F6
:1034700000200290FFE7029807280ED8FFE7029A83
:1034800004A9002041F82200029A0CA941F8220068
:10349000FFE7029801300290EDE7FFE7039800781C
:1034A00078B1FFE703A804A900F032FF8DF8070008
:1034B0009DF807200CA951F82200013041F82200A4
:1034C000ECE716980390FFE703981699179A1144B2
:1034D000884212D2FFE7039800782C2807D0FFE734
:1034E0009DF856200399087850400870FFE7BDF911
:1034F0005210039808440390E6E716980390FFE7FC
:103500000398007878B1FFE703A804A900F000FF52
:103510008DF806009DF806200CA951F82200013014
:1035200041F82200ECE716980390FFE703981699FC
:10353000179A1144884212D2FFE7039800782C288A
:1035400007D0FFE79DF85420039908785040087091
:10355000FFE7BDF95210039808440390E6E7002006
:103560000290FFE70298072819D8FFE702990CA8F4
:1035700050F82100BDF8501001F012F8ADF85000DD
:10358000029904A850F82100BDF8501001F008F885
:10359000ADF85000FFE7029801300290E2E7BDF875
:1035A000500018B010BD00008BB00A90099108922D
:1035B0000793002006900121039101900090089844
:1035C00018B9FFE701200890FFE7FFE700980A9984
:1035D000884208D2FFE701980130019001984043EA
:1035E000C0000090F2E70198013806900998013870
:1035F00020F003000430059005980699494300EB3C
:103600004100049000200190FFE70198069988424C
:1036100045D2FFE700200090FFE700980699884216
:1036200038D2FFE7039808994843C11700EB1141CE
:103630004FF6FF729143401A089008980399084486
:10364000ADF80A00BDF80A000499019A069BDDF85E
:1036500000C002FB03C221F81200BDF80A00039962
:103660000844ADF80A009DF80A00ADF80A00BDF85C
:103670000A000599019A069BDDF800C002FB03C20F
:1036800021F81200039801300390FFE70098013001
:103690000090C2E7FFE7019801300190B5E7059877
:1036A00007994860049807998860049806994943E7
:1036B00000EB4100013820F0030004300799C86096
:1036C00006980799086006980BB070470000000044
:1036D00088B00790ADF81A1005920020049003906E
:1036E00001900799013907910390FFE70498039926
:1036F000084401300799884280F07280FFE7039800
:1037000000B3FFE700200290FFE702980399884288
:103710000CD2FFE70198029A805C0599049B19443A
:103720008854FFE7029801300290EEE7059804996B
:103730000144029A2C2088540398049908440130CB
:103740000490FFE7BDF81A000130ADF81A00BDF88B
:103750001A0000F007000146009107283ED80099A2
:10376000DFE801F0040404121220202EBDF81A1024
:103770000C2000EA510140F23800C2F200404058EB
:103780000190042003902AE0BDF81A100C2000EAF2
:10379000510140F22800C2F2004040580190082038
:1037A00003901CE0BDF81A100C2000EA510140F211
:1037B0005C00C2F2004040580190082003900EE0E7
:1037C000BDF81A100C2000EA510140F21800C2F2B4
:1037D0000040405801900820039000E0FFE785E793
:1037E000079801300790FFE704980799884208D2AC
:1037F000FFE70599049A002088540498013004904A
:10380000F2E708B07047000085B00390029102987B
:10381000B0F9020000281DD4FFE7FFE7039900205C
:10382000019061B1FFE703984068B0F90200029986
:10383000B1F90210401A18BF01200190FFE701986A
:10384000C00720B1FFE7039800680390E6E70398FC
:1038500004901BE0FFE703990020009059B1FFE7B7
:103860000398406800780299B1F90010401A18BF17
:1038700001200090FFE70098C00720B1FFE7039800
:1038800000680390E7E703980490FFE7049805B009
:10389000704700000000000080B592B011901091B8
:1038A000ADF83E2014200E9011980E99B0FBF1F067
:1038B00002380D9010980D9900EBC1000C900C98F7
:1038C0000B900B980D9900EB81000A9010980790CF
:1038D00007990020039008600B99079A5160079997
:1038E000496848800798416848F28000088010982D
:1038F000083010900B9804300B9047F6FF70ADF82D
:103900001A004FF6FF70ADF8180007980C990A9B43
:103910006A465360116006A910AA0BAB00F074F858
:1039200003980990FFE709980D99884227D2FFE78D
:10393000BDF83E000999484000F00F00ADF81600B0
:10394000BDF81610099800F0070040EAC100ADF874
:103950001400BDF8140040EA0020ADF818000798E4
:103960000C990A9B6A465360116006A910AA0BAB1A
:1039700000F04AF8FFE7099801300990D3E707986B
:103980000068089001200990FFE70898006860B37C
:10399000FFE709980D994CF6CD42CCF6CC42A1FB3D
:1039A0000221B0EB910F07D2FFE70998411C099162
:1039B00008994968488014E00998411C0991BDF8AC
:1039C0003E104840ADF81200099800F00701BDF81C
:1039D000120040EA01206FF39F300899496848803F
:1039E000FFE7089800680890CFE7079843F2C911ED
:1039F000C0F60001002200F047F80790079812B0C7
:103A000080BD00000000000080B586B0DDF824C055
:103A1000DDF820C00490039102920193029800689F
:103A200008300899884203D3FFE70020059027E07B
:103A30000198006804300999884203D3FFE7002009
:103A400005901DE00298006800900299086808300F
:103A5000086004980068009908600098049908605C
:103A6000019800680099486001990868043008606E
:103A7000009840680399FFF7C7FB00980590FFE79F
:103A8000059806B080BD000080B58EB00D900C91F9
:103A90000B9201200690FFE70D980A9000200D90F0
:103AA00007900590FFE70A98002800F08480FFE760
:103AB0000598013005900A98099000200490029022
:103AC000FFE70298069988420FDAFFE70498013071
:103AD0000490099800680990099808B9FFE704E084
:103AE000FFE7029801300290EBE706980390FFE7AA
:103AF00004990120002901900FDCFFE703990020C1
:103B00000129009006DBFFE70998002818BF012073
:103B10000090FFE700980190FFE70198C007002898
:103B200046D0FFE7049848B9FFE70998089009983C
:103B3000006809900398013803902CE0039818B1AD
:103B4000FFE7099848B9FFE70A9808900A980068C3
:103B50000A900498013804901CE00C9B0A98406875
:103B6000099949680B9A9847002809DCFFE70A98E9
:103B700008900A9800680A9004980138049008E0B8
:103B800009980890099800680990039801380390F3
:103B9000FFE7FFE7FFE7079820B1FFE708980799DD
:103BA000086002E008980D90FFE7089807909FE7EB
:103BB00009980A9077E7079900200860059801287E
:103BC00003DCFFE70D980EB080BD0698400006901C
:103BD00062E700000000000083B0029002980068D5
:103BE00000900298406801900098406802994860EF
:103BF0000198009948600299086800680860009977
:103C000000200860009803B070470000000000002A
:103C100083B0029000200190FFE7029858B1FFE7BF
:103C2000029800680090019802990860029801903B
:103C300000980290F1E7019803B07047000000007F
:103C400083B002900191029840680090019840680A
:103C500002994860009801994860019800680299AB
:103C60000860029801990860029803B0704700004C
:103C700080B5A2B000202190ADF87C00ADF87A00AC
:103C80004FF6FF71ADF87810ADF87600ADF874001E
:103C90000BA8423021A920AA01F022FB012000F04C
:103CA000BFFDADF82C00022000F0BAFDADF82E00EB
:103CB000032000F0B5FDADF83000042000F0B0FDA9
:103CC0001290052000F0ACFD1390139818B9FFE78F
:103CD00007201390FFE7BDF92C0088B9FFE7BDF975
:103CE0002E0068B9FFE7BDF9300048B9FFE70020B2
:103CF000ADF82C00ADF82E006620ADF83000FFE7DF
:103D0000BDF92C00012812D1FFE7BDF92E0070B9D2
:103D1000FFE7BDF9300050B9FFE743F21540ADF8B9
:103D20002C00ADF82E006620ADF83000FFE740F61D
:103D30001000C2F200400D904FF4FA601190002084
:103D4000ADF86C00ADF87E00FFE7BDF87E000228FC
:103D500014DCFFE7BDF87E101398C840C00730B1EF
:103D6000FFE7BDF87A000130ADF87A00FFE7FFE722
:103D7000BDF87E000130ADF87E00E6E70020ADF82A
:103D80007E00FFE7BDF87E00002814DCFFE7BDF8E9
:103D90007E0000EB00110BA800EB81018869BDF8E3
:103DA0007A20B0FBF2F08861FFE7BDF87E000130B9
:103DB000ADF87E00E6E70020ADF87E00FFE7BDF835
:103DC0007E00022831DCFFE7BDF87E101398C84062
:103DD000C00718B3FFE700200A90FFE70A98B8B9B8
:103DE000FFE70A9800EB00110BA800EB810151F8E6
:103DF000083F1198BDF87C2000FB0230BDF87E2002
:103E000001EB82014860FFE70A9801300A90E5E77C
:103E1000BDF87C000130ADF87C00FFE7FFE7BDF89E
:103E20007E000130ADF87E00C9E70020ADF87E00CD
:103E3000FFE7BDF87E00002865DCFFE7BDF87E00E7
:103E400000EB00110BA800EB810090F82000C007E8
:103E5000B8B1FFE71198BDF87E1001EB01130BAA72
:103E6000069202EB8301C96832F92320FFF714FDA3
:103E70000699BDF87E2002EB021201EB8201486236
:103E8000FFE7BDF87E0000EB00110BA800EB8100FE
:103E900090F820008007002813D5FFE71198BDF89F
:103EA0007E1001EB011C0BAA02EB8C03196932F99D
:103EB0002C20B3F802C042EA0C422833FFF774FB0F
:103EC000FFE7BDF87E0000EB00110BA800EB8100BE
:103ED00090F82000400700280ED5FFE71198BDF8A4
:103EE0007E1001EB01130BA901EB830231F92310C2
:103EF0005269FFF7EDFBFFE7FFE7BDF87E000130F9
:103F0000ADF87E0095E71298C0BBFFE7002009904E
:103F1000089001201290FFE79DED080BB7EE001B03
:103F2000B4EE410BF1EE10FA13DAFFE7129800EB52
:103F300080004000129001F0DFF90BA800F0F8FCBF
:103F400001F0E6F900F0A4FC01F0EEF98DED080BAC
:103F5000E2E79DED080BBCEEC00B8DED070A07985C
:103F600018B9FFE701200790FFE707990A20B0FB87
:103F7000F1F0411C129848431290FFE701F0BCF9A0
:103F80000BA800F0D5FC01F0C3F900F081FC1C90F7
:103F9000BDF92C00BDF8741000F0D6FAADF874002D
:103FA000BDF92E00BDF8741000F0CEFAADF8740023
:103FB000BDF93000BDF8741000F0C6FAADF8740019
:103FC000BDF94400BDF8741000F0BEFAADF87400FD
:103FD000BDF874000146059141F6F201884240D0D7
:103FE000FFE7059844F6AF61884226D0FFE70598C1
:103FF00047F60531884216D0FFE7059848F60221BA
:10400000884206D0FFE705984EF6F51188421ED08B
:1040100031E00020ADF8780047F23550C0F60000DE
:1040200001F014FD2CE00120ADF8780047F28E502D
:10403000C0F6000001F00AFD22E00220ADF8780091
:1040400047F2BA50C0F6000001F000FD18E003206E
:10405000ADF8780047F20850C0F6000001F0F6FC19
:104060000EE00420ADF8780047F26250C0F6000080
:1040700001F0ECFC04E04FF6FF70ADF87600FFE7CE
:10408000BDF97800002800F1FA80FFE70020ADF8C4
:104090007E00FFE7BDF87E0040F21401C2F200414D
:1040A0000968884280F0EA80FFE7BDF87E0000EBF7
:1040B00000110BA800EB81020021A2F84010BDF80E
:1040C0007E1001EB011100EB810090F82000C00789
:1040D000B8B3FFE7BDF87E0000EB00110BA800EBC2
:1040E0008100408FBDF9782040F24801C2F20041C2
:1040F00031F81210884224D0FFE7BDF87E1001EBA2
:1041000001120BA8049000EB8200428FBDF97830B9
:1041100040F24800C2F2004030F8133047F28F609E
:10412000C0F6000001F092FC0498BDF87E1001EB8F
:10413000011100EB8101B1F840000130A1F840000D
:10414000FFE7BDF87E0000EB00110BA800EB81003B
:1041500090F820008007002837D5FFE7BDF87E00E3
:1041600000EB00110BA800EB8100808FBDF97820D7
:1041700040F25201C2F2004131F81210884224D0BC
:10418000FFE7BDF87E1001EB01120BA8039000EBD6
:104190008200828FBDF9783040F25200C2F20040B6
:1041A00030F8133047F2BE60C0F6000001F04EFC5C
:1041B0000398BDF87E1001EB011100EB8101B1F80D
:1041C00040000130A1F84000FFE7BDF87E0000EBA1
:1041D00000110BA800EB810090F820004007002898
:1041E00037D5FFE7BDF87E0000EB00110BA800EB10
:1041F0008100C08FBDF9782040F27001C2F2004109
:1042000031F81210884224D0FFE7BDF87E1001EB90
:1042100001120BA8029000EB8200C28FBDF978302A
:1042200040F27000C2F2004030F8133047F25F6095
:10423000C0F6000001F00AFC0298BDF87E1001EB08
:10424000011100EB8101B1F840000130A1F84000FC
:10425000FFE7BDF87E0000EB00110BA800EB81002A
:10426000B0F84010BDF876000844ADF87600FFE7DE
:10427000BDF87E000130ADF87E000BE7FFE7FEF7EA
:1042800073FF0146BDF876000844ADF87600BDF92D
:104290007600012807DBFFE747F24E60C0F600001A
:1042A00001F0D4FBFFE7BDF97600B0F1FF3F07DC7A
:1042B000FFE747F2EB50C0F6000001F0C7FBFFE755
:1042C0000BA8423001F004F840F21400C2F20040A2
:1042D00090ED000AB8EE400B9DED121AB8EE411BAE
:1042E00020EE010B8DED000B1C9801F01DF8B0EED7
:1042F000401B9DED000B80EE010BB7EEC00B40F2B2
:104300001870C2F2004080ED000A002022B080BD8B
:1043100080B586B005900491059800680390002050
:104320008DF80A00FFE7039801780020019039B169
:10433000FFE79DF80A00013818BF01200190FFE750
:104340000198C007002800F0F780FFE70398007885
:104350008DF80B009DF80B002C2804D1FFE7039883
:1043600001300390E8E09DF80A000146009107281B
:1043700000F2DC800099DFE801F004D93498597626
:10438000B3CA9DF80B0000F02BFA20B1FFE7042020
:104390008DF80A0020E09DF80B002B2805D0FFE7E0
:1043A0009DF80B002D2804D1FFE702208DF80A00AC
:1043B00011E09DF80B002E2804D1FFE705208DF8B1
:1043C0000A0007E001208DF80A00049948680130CE
:1043D0004860FFE7FFE7FFE70499086801300860DD
:1043E000A5E09DF80B0000F0FBF940B1FFE70420C9
:1043F0008DF80A00049988680130886015E09DF8FE
:104400000B002E2808D1FFE705208DF80A0004993B
:1044100088680130886007E001208DF80A0004995F
:10442000886801308860FFE7FFE780E09DF80B00B7
:104430002E2808D1FFE705208DF80A0004990869A5
:10444000013008610EE09DF80B0000F0C9F940B999
:10445000FFE701208DF80A0004990869013008611E
:10446000FFE7FFE763E09DF80B00452805D0FFE775
:104470009DF80B00652808D1FFE703208DF80A009E
:1044800004994869013048610EE09DF80B0000F086
:10449000A7F940B9FFE701208DF80A00049948699F
:1044A00001304861FFE7FFE741E09DF80B002B2852
:1044B00005D0FFE79DF80B002D2808D1FFE7062067
:1044C0008DF80A000499C8680130C86007E001202F
:1044D0008DF80A000499C8680130C860FFE726E03B
:1044E0009DF80B0000F07CF940B1FFE707208DF844
:1044F0000A00049988690130886107E001208DF87D
:104500000A000499886901308861FFE70FE09DF88F
:104510000B0000F065F940B9FFE701208DF80A00B3
:104520000499486801304860FFE700E0FFE7FFE7D3
:10453000039801300390F6E60398059908609DF80A
:104540000A0006B080BD000080B582B0ADF806005C
:10455000ADF80410BDF80600BDF8041000F004F832
:1045600002B080BD0000000080B582B0ADF806004A
:10457000ADF804109DF80600BDF8041000F02CF80A
:10458000ADF804009DF80700BDF8041000F024F811
:10459000ADF80400BDF8040002B080BD00000000CA
:1045A00080B582B00190ADF80210BDF90400BDF8ED
:1045B0000210FFF7C9FFADF80200BDF90600BDF813
:1045C0000210FFF7C1FFADF80200BDF8020002B013
:1045D00080BD00000000000082B08DF80700ADF83B
:1045E000041000208DF803008DF802008DF8010002
:1045F0008DF80300FFE79DF80300072840DCFFE784
:104600009DF807009DF80410484000F001008DF867
:1046100002009DF8070040088DF807009DF8020091
:1046200001280BD1FFE7BDF8040044F20201484025
:10463000ADF8040001208DF8010003E000208DF8A2
:104640000100FFE7BDF804004008ADF804009DF844
:10465000010038B1FFE7BDF8040040F40040ADF8B8
:10466000040006E0BDF804006FF3DF30ADF804008D
:10467000FFE7FFE79DF8030001308DF80300BAE77C
:10468000BDF8040002B0704780B588B044F2402005
:10469000C0F20F00029001200390FFE703980299F7
:1046A000884200F39A80FFE7FEF7C2F8FEF7A4F80D
:1046B000022007900320069040F27F70C2F2004073
:1046C000019047F28C41C0F60001FBF721FE0199F1
:1046D00001208DF8120040F26070C2F20040FCF739
:1046E000F7F8B0FA80F0400940F21071C2F20041D0
:1046F0000860FFE70798069988420FDAFFE70798F6
:1047000000EB80000699401A05900798069905AAC3
:10471000FEF7DEF8079801300790EBE7079A059B54
:1047200040F28000C2F2004040F2D001C2F20041EB
:10473000FEF7DEF841208DF81300FFE79DF8130027
:1047400040F21571C2F20041097888422CDCFFE783
:104750009DF8120000909DF813004321FCF790F89B
:1047600001460098884218D1FFE700200DF11201A0
:10477000FEF76EF840F27F70C2F2004047F2AB41A4
:10478000C0F60001FBF7C4FD03980690039840F2C1
:104790004871C2F200410860FFE7FFE79DF813008F
:1047A00001308DF81300C9E7069807994843069031
:1047B0000698059990FBF1F0079006980599401A24
:1047C000C0EBC0000799401A069007A8FDF7ECFF60
:1047D000FFE703980130039060E7002008B080BD38
:1047E00081B08DF803009DF8032000212F2A084690
:1047F000C8BF01203A2AB8BF012108408DF8020045
:104800009DF8020001B0704780B582B00190009120
:104810000198FDF741FD02B080BD000000000000DE
:1048200083B002900298013801460091042828D8EC
:104830000099DFE801F0030A11181F0040F2FC7034
:10484000C2F20040006801901EE040F60000C2F293
:1048500000400068019017E040F26C00C2F2004096
:104860000068019010E040F60400C2F200400068C9
:10487000019009E040F60800C2F200400068019093
:1048800002E000200190FFE7019803B070470000AC
:1048900081B040F6E070C2F20040006840F60C01C2
:1048A000C2F200410968401A0090009801B07047B8
:1048B00080B584B03020019002F022FC01460198BE
:1048C00040F25872C2F200420292116002F018FCEB
:1048D0000299024640F25C70C2F200400260096830
:1048E00002681160026800210391117102680221BF
:1048F000117202682821D1600068103047F2CA4165
:10490000C0F60001FBF704FD40F26070C2F2004007
:1049100047F2E941C0F60001FBF7FAFC039840F2C8
:10492000D002C2F200420A21C2F89C1204B080BD3B
:1049300080B586B00590059802900298C0690190F4
:10494000029900200887029948870299888702996E
:10495000C8870490FFE704980199884229D2FFE7AD
:1049600002980121FEF760FCADF80E00BDF80E00C4
:104970000299098FFFF7F8FD0299088702984FF016
:10498000FF31FEF751FCADF80E00BDF80E000299A4
:10499000098FFFF7E9FD02990887049820B9FFE71E
:1049A0000299088F4887FFE7FFE7049801300490D9
:1049B000D1E7002006B080BD80B590B000200990FE
:1049C000FCF706FAFEF71CF8FDF78AFC4FF0FF3003
:1049D000FEF7C2FA40F20040C5F602000190012243
:1049E00002921146FCF7BCF90198029A4FF48041FB
:1049F000FCF7B6F9029A41F20000C5F60200022166
:104A0000FCF7AEF9FCF7CCF90890FFE7FCF7C8F922
:104A1000089901F57A71884201D2FFE7F6E7FFF7BE
:104A200047FFBFF34F8FBFF36F8F4EF65071CEF23B
:104A3000000100200860BFF34F8FBFF36F8FFCF7BA
:104A4000AFF90890FFE7FCF7ABF9089964318842A9
:104A500001D2FFE7F7E74EF61450CEF200000068EF
:104A60008003002801D5FFE71AE0BFF34F8FBFF3A3
:104A70006F8F4EF65071CEF2000100200860BFF338
:104A80004F8FBFF36F8F4EF61451CEF200010868BE
:104A900040F400300860BFF34F8FBFF36F8FFFE724
:104AA0004EF68451CEF2000100200860BFF34F8F14
:104AB0004EF68050CEF2000000680F900F98C0F3C1
:104AC0004E300E90FFE70F98C0F3C9000D90FFE73E
:104AD0000E990D98800761F34D104EF66071CEF27D
:104AE000000108600D98411E0D910028F0D1FFE7EC
:104AF0000E98411E0E910028E5D1FFE7BFF34F8FBE
:104B0000BFF36F8FFCF74CF90890FFE7FCF748F90B
:104B100008996431884201D2FFE7F7E74EF6145056
:104B2000CEF200000068C003002801D5FFE73CE09A
:104B30004EF68451CEF2000100200860BFF34F8F83
:104B40004EF68050CEF2000000680C900C98C0F336
:104B50004E300B90FFE70C98C0F3C9000A90FFE7B6
:104B60000B990A98800761F34D104EF66071CEF2F2
:104B7000000108600A98411E0A910028F0D1FFE761
:104B80000B98411E0B910028E5D1FFE7BFF34F8F33
:104B90004EF61451CEF20001086840F480300860EF
:104BA000BFF34F8FBFF36F8FFFE7FCF7F9F8089063
:104BB000FFE7FCF7F5F8089901F57A71884201D210
:104BC000FFE7F6E700200590FFE70598092808D8D9
:104BD000FFE7FCF7E5F80890FFE70598013005903E
:104BE000F3E700200590FFE70598052807D8FFE7C1
:104BF000FFF74AFDFFE7059801300590F4E7FCF761
:104C0000CFF8079007980899401A00EE100AB8EEFE
:104C1000400AB1EE081A80EE010A8DED040A40F256
:104C20000040C5F602004FF480410022FCF798F8DE
:104C3000FCF7B6F80890FFE7FCF7B2F80899643182
:104C4000884201D2FFE7F7E7FCF7AAF808900020B6
:104C50000590FFE70598022809D8FFE70A2064219C
:104C600000F076FBFFE7059801300590F2E7FCF7CE
:104C700097F8079007980899401A00EE100AB8EEC6
:104C8000400AB0EE081A80EE010A8DED030A41F2E7
:104C90000000C5F6020002210022FCF761F8FCF7D3
:104CA0007FF80890FFE7FCF77BF8089964318842A9
:104CB00001D2FFE7F7E7FEF7DBFFFCF771F808909A
:104CC000FFE7FCF76DF808996431884201D2FFE7ED
:104CD000F7E7FCF7D5FB40004DF68361C4F21B31CA
:104CE000A0FB0110800C0690069947F26740C0F6C1
:104CF000000000F0ABFEFCF753F80890FFE7FCF76C
:104D00004FF808996431884201D2FFE7F7E7FDF7D1
:104D1000EBFE40F20C00C2F2004000684DF68361E9
:104D2000C4F21B31A0FB0110810C47F2D830C0F651
:104D3000000000F08BFEFCF733F80890FFE7FCF76B
:104D40002FF808996431884201D2FFE7F7E79DED1B
:104D5000030AB7EEC01A9FED560B80EE010B9DEDD6
:104D6000061AB8EE411B80EE010B53EC102B47F2F4
:104D70003540C0F6000000F069FEFCF711F808901D
:104D8000FFE7FCF70DF808996431884201D2FFE78C
:104D9000F7E79DED040AB7EEC01A9FED470B80EED2
:104DA000010B9FED471B80EE010B9DED061AB8EE3F
:104DB000411B80EE010B53EC102B47F2FE30C0F686
:104DC000000000F043FEFBF7EBFF0890FFE7FBF766
:104DD000E7FF08996431884201D2FFE7F7E740F224
:104DE0001870C2F2004090ED000A9DED061AB8EE70
:104DF000411A80EE010AB7EEC00A53EC102B47F2BD
:104E00004E40C0F6000000F021FEFBF7C9FF0890FD
:104E1000FFE7FBF7C5FF08996431884201D2FFE73D
:104E2000F7E747F21840C0F6000000F00FFEFBF76E
:104E3000B7FF0890FFE7FBF7B3FF0899643188429A
:104E400001D2FFE7F7E741F20000C5F602000221B8
:104E50000022FBF785FFFFE740F20040C5F60200A5
:104E600001221146FBF77CFFFBF79AFF0890FFE752
:104E7000FBF796FF089901F5FA71884201D2FFE726
:104E8000F6E740F20040C5F6020001210022FBF7E0
:104E900067FFFBF785FF0890FFE7FBF781FF0899A5
:104EA00001F5FA71884201D2FFE7F6E7D4E700BFC7
:104EB00000000000006AF8400000000065CDCD4110
:104EC0000000000000749B4085B004900391ADF891
:104ED0000A2000200190FFE701980499884220D21F
:104EE000FFE700200090FFE700980499884213D262
:104EF000FFE7BDF80A3003990198049ADDF800C075
:104F000000FB02C231F81200184421F81200FFE73A
:104F1000009801300090E7E7FFE701980130019029
:104F2000DAE705B07047000086B00590049103925F
:104F3000ADF80A3000200190FFE7019805998842FA
:104F400020D2FFE700200090FFE7009805998842F3
:104F500013D2FFE703980199059A009B01FB0232E7
:104F600030F91200BDF90A104843049941F82200B3
:104F7000FFE7009801300090E7E7FFE70198013074
:104F80000190DAE706B0704780B587B006900591CA
:104F90000492039300200290FFE70298069988424A
:104FA00040D2FFE700200190FFE701980699884270
:104FB00033D2FFE705990298069A019B00FB023263
:104FC000002041F822000090FFE7009806998842EF
:104FD0001ED2FFE70498029ADDF818C0009B02FB7E
:104FE0000C3130F911000399DDF804E003FB0CE308
:104FF00031F91330059902FB0CE251F822C010FB85
:1050000003C041F82200FFE7009801300090DCE780
:10501000FFE7019801300190C7E7FFE702980130F0
:105020000290BAE707B080BD80B588B007900691BE
:105030000592049300200390FFE7039807998842A4
:105040004BD2FFE700200290FFE7029807998842C1
:105050003ED2FFE706990398079A029B00FB0232B3
:10506000002041F822000190FFE70198079988424B
:1050700029D2FFE705980399079B019A01FB0321B9
:1050800030F911000499DDF808C002FB03C231F9C0
:105090001210484300900099C1F38300C1F34613F6
:1050A0000699039ADDF81CC0DDF808E002FB0CE26B
:1050B00051F822C010FB03C041F82200FFE701981D
:1050C00001300190D1E7FFE7029801300290BCE780
:1050D000FFE7039801300390AFE708B080BD000000
:1050E00086B0059004910392029300200190FFE79F
:1050F00001980599884228D2FFE70499019A002077
:1051000041F822000090FFE700980599884217D2E5
:10511000FFE70398019A0599009B02FB013130F9E2
:105120001100029931F91330049951F822C010FB93
:1051300003C041F82200FFE7009801300090E3E748
:10514000FFE7019801300190D2E706B070470000F8
:1051500089B008900791ADF81A20002005900490BE
:105160000390ADF80A000190FFE701980899884282
:105170003AD2FFE700200090FFE7009808998842A4
:105180002DD2FFE707980199089A009B01FB023195
:1051900050F821000390039905980844059005985C
:1051A000BDF91A10884208DDFFE7BDF80A000A3091
:1051B000ADF80A00002005900AE0039A049BBDF8B0
:1051C0000A00411C9A42C8BF0846ADF80A00FFE732
:1051D00003980490FFE7009801300090CDE7FFE7C7
:1051E000019801300190C0E7BDF90A0009B070478D
:1051F00080B586B084460898CDF814C00491039217
:105200000293ADF806000020ADF80400BDF80600DA
:1052100040F47040ADF8020005980399BDF90620EE
:10522000FFF752FE05980499039ABDF90630FFF77F
:105230007BFE05980499BDF90220FFF789FFBDF8B0
:105240000410FFF781F9ADF8040005980499039A5A
:10525000029BFFF745FF05980499BDF90220FFF76F
:1052600077FFBDF80410FFF76FF9ADF8040005985B
:105270000499039A029BFFF787FE05980499BDF9EC
:105280000220FFF765FFBDF80410FFF75DF9ADF8E8
:10529000040005980499039A029BFFF7C5FE059840
:1052A0000499BDF90220FFF753FFBDF80410FFF782
:1052B0004BF9ADF8040005980399BDF80620524259
:1052C00012B2FFF701FEBDF9040006B080BD000078
:1052D00081B0009000990020087001B07047000074
:1052E00083B002900191009202990120087003B0EE
:1052F000704700000000000080B5FDF795FE40F605
:105300000C01C2F20041086080BD000000000000F6
:1053100080B5FDF789FE40F6E071C2F200410860F9
:1053200080BD00000000000084B003909DED030AE2
:10533000B8EE400B9FED041B80EE010B8DED000BD2
:105340009DED000B04B070470000000000408F404E
:1053500010B5BAB03990389140F2A071C2F2004154
:105360004FF69770C3F6DF70486045F28F30C2F297
:105370007440086040F6E871C2F2004140F20C202F
:10538000C3F6E070486045F63560C4F6BA100860B0
:1053900040F6F071C2F200414FF0804048600020BA
:1053A000086039981D9038981C9001201B90FFE7E9
:1053B000002036901D9901EB4101890035911D991E
:1053C000C1EBC101490034911D9940F2591251437A
:1053D00033911D99D222514332911D994901319146
:1053E0001D9940F28332514330911D994FF41A7246
:1053F00051432F912E901D995D2251432D910021F3
:10540000C3F6F0712B912A900021CBF6F07129910F
:105410002890279126902591249001203790FFE72E
:1054200037983699884259DCFFE79DED2A0B9DEDB0
:10543000281B30EE010B9DED261B30EE010B9DED80
:10544000241B30EE410B40F2A070C2F2004090ED00
:10545000001B20EE010B8DED2A0B9DED2A0B9DED1F
:10546000281B30EE010B9DED261B30EE410B9DED10
:10547000241B30EE010B90ED001B20EE010B8DED97
:10548000280B9DED2A0B9DED281B30EE410B9DED69
:10549000261B30EE010B9DED241B30EE010B90ED31
:1054A000001B20EE010B8DED260B9DED2A1B9DEDC3
:1054B000280B30EE411B9DED260B30EE011B9DEDC0
:1054C000240B30EE010B90ED001B20EE010B8DED57
:1054D000240BFFE7379801303790A1E740F22071A5
:1054E000C2F200411A910020C3F6F070C86000209B
:1054F00088600022CBF6F0724A610861CA61886157
:105500004A62086201203790FFE737983599884250
:105510005EDCFFE740F22070C2F20040199090ED8F
:10552000020B90ED043B90ED062B90ED081B30EE46
:10553000030B30EE020B30EE410B40F2A071C2F2D1
:10554000004191ED001B20EE010B80ED020B90ED70
:10555000020B90ED043B90ED062B90ED081B30EE16
:10556000030B30EE420B30EE010B91ED001B20EEF1
:10557000010B80ED040B90ED020B90ED043B90EDE0
:10558000062B90ED081B30EE430B30EE020B30EE95
:10559000010B91ED001B20EE010B80ED060B90ED51
:1055A000023B90ED042B90ED061B90ED080B32EEC4
:1055B000432B31EE021B30EE010B91ED001B20EE70
:1055C000010B80ED080BFFE73798013037909CE71F
:1055D00001203790FFE73798349988420BDCFFE7CA
:1055E00040F22070C2F20040FDF766F8FFE73798FE
:1055F00001303790EFE740F24C71C2F200410120D8
:1056000008603790FFE737983399884247DCFFE717
:1056100040F24C70C2F200400068012807D1FFE759
:1056200040F24C71C2F200410220086006E040F2F4
:105630004C71C2F2004103200860FFE740F24C7059
:10564000C2F200400068032807DBFFE740F24C711C
:10565000C2F200410020086006E040F24C71C2F244
:10566000004101200860FFE740F24C70C2F20040A8
:105670000068002807DCFFE740F24C71C2F20041ED
:105680000120086006E040F24C71C2F200410020A7
:105690000860FFE7FFE7379801303790B3E740F243
:1056A0004C71C2F200410120086040F25072C2F217
:1056B00000420221116040F25472C2F20042032102
:1056C00011603790FFE737983299884253DCFFE743
:1056D00040F24C72C2F20042106840F25071C2F2C5
:1056E0000041D1F800E0AEEB0003584340F25473A0
:1056F000C2F20043D3F800C0ACEB0E0C00FB0CF080
:1057000010601868D1F800C000FB0CFE1468001B84
:1057100000FB1CE008601868D1F800C0A0EB0C008A
:10572000D2F800E0F44400FB0CF018601068D1F8E7
:1057300000C06044D3F800C0604400EE100AB8EE28
:10574000C00B40F22070C2F2004000EBCC0C0CED1C
:10575000020B126809684A431B685A4300EE102A7C
:10576000B8EEC00B00EBC10000ED020BFFE737986D
:1057700001303790A7E70021C3F6E07123910020A4
:1057800022902191209001203790FFE7379831999E
:10579000884200F3A880FFE740F2A070C2F2004008
:1057A000089090ED000B8DED0A0B40F6F070C2F200
:1057B0000040099090ED000B8DED000B9DED220B4C
:1057C00000F0F2FCB0EE401B9DED000B20EE010B53
:1057D0008DED020B9DED220B00F04EFAB0EE401B5A
:1057E0009DED020B20EE010B8DED060B9DED220BC6
:1057F0009DED201B30EE010B00F03EFA8DED040B09
:105800009DED220B9DED201B30EE410B00F034FA94
:105810009DED041BB0EE402B9DED060B31EE021BFF
:10582000B7EE002B8DED122B31EE421B80EE010BFB
:1058300000F036F908990998B0EE401B9DED0A0B6F
:1058400020EE010B8DED220B91ED000B8DED160B73
:1058500090ED000B8DED0C0B9DED200B00F0A4FCEA
:10586000B0EE401B9DED0C0B20EE010B8DED0E0BF1
:105870009DED200B00F000FAB0EE401B9DED0E0BED
:1058800020EE010B8DED140B9DED220B9DED201BE9
:1058900030EE010B00F0F0F98DED100B9DED220BB9
:1058A0009DED201B30EE410B00F0E6F99DED101B45
:1058B0009DED122BB0EE403B9DED140B31EE031B22
:1058C00031EE421B80EE010B00F0EAF8B0EE401B17
:1058D0009DED160B20EE010B8DED200BFFE73798A9
:1058E0000130379052E70021C3F6F0712391002078
:1058F0002290219120901F911E9001203790FFE768
:105900003798309988420CDCFFE79DED220B9DED26
:10591000201B1EA8FCF790FEFFE737980130379058
:10592000EEE740F24C71C2F200410120086040F203
:105930005072C2F200420221116040F25472C2F26F
:1059400000420321116040F22072C2F200420021A5
:10595000C3F6F071D160002191604FF08043536134
:1059600011610023C4F20803D36191613790FFE70E
:1059700037982F99884207DCFFE7FCF72DFEFFE7F9
:10598000379801303790F3E740F24C71C2F2004192
:105990000220086040F25071C2F20041032008600A
:1059A00001203790FFE737982E9988421EDCFFE7E9
:1059B00040F24C72C2F20042106840F25071C2F2E2
:1059C00000410B681844106010680B6818440860A8
:1059D00008681368C01A106008681268801A801A74
:1059E0000860FFE7379801303790DCE70020C3F606
:1059F000E87023900020229001203790FFE737982D
:105A00002D99884217DCFFE79DED220B00F0B8FAD4
:105A100040F6E870C2F2004090ED001B80EE010BF2
:105A200000F082F900F018FC8DED220BFFE73798AB
:105A300001303790E3E71B9801301B901C99884296
:105A400001DCFFE7B4E400203AB010BD0FB4054B11
:105A500010B503A9044A029800F0AEFF10BC5DF82F
:105A600014FB000009480008A807002403B40198AB
:105A70004100009850EAC12018BF04204A0D18BF09
:105A800040F0010040F2FF72B2EB515F08BF40F0FE
:105A90000200012808BF052002B070470000000086
:105AA00070B565482DED020B2DED048B059D25F09D
:105AB0000044A04218DC6148844202DC0AD1049808
:105AC00040B19DED040BBDEC048B02B0BDE870400D
:105AD00000F072BE002DCCBF9FED590B9FED5A0B0D
